{
	"data": {
		"bytecode": {
			"linkReferences": {},
			"object": "60c060405260056080908152642cb0b9b4b760d91b60a0525f90610023908261010d565b506468656c6c6f60d81b600190815560025563499602d2600355600480546001600160a81b031916741f9840a85d5af5bf1d1762f925bdaddc4201f9840117905534801561006f575f80fd5b506101c7565b634e487b7160e01b5f52604160045260245ffd5b600181811c9082168061009d57607f821691505b6020821081036100bb57634e487b7160e01b5f52602260045260245ffd5b50919050565b601f82111561010857805f5260205f20601f840160051c810160208510156100e65750805b601f840160051c820191505b81811015610105575f81556001016100f2565b50505b505050565b81516001600160401b0381111561012657610126610075565b61013a816101348454610089565b846100c1565b6020601f82116001811461016c575f83156101555750848201515b5f19600385901b1c1916600184901b178455610105565b5f84815260208120601f198516915b8281101561019b578785015182556020948501946001909201910161017b565b50848210156101b857868401515f19600387901b60f8161c191681555b50505050600190811b01905550565b610245806101d45f395ff3fe608060405234801561000f575f80fd5b506004361061007a575f3560e01c806326b85ee11161005857806326b85ee1146100b65780632cb777a6146100e6578063712f4602146100ef578063e2a4b2af146100f8575f80fd5b806306540f7e1461007e57806306fdde031461009a57806320965255146100af575b5f80fd5b61008760035481565b6040519081526020015b60405180910390f35b6100a2610117565b60405161009191906101a2565b6006610087565b6004546100ce9061010090046001600160a01b031681565b6040516001600160a01b039091168152602001610091565b61008760025481565b61008760015481565b6004546101059060ff1681565b60405160ff9091168152602001610091565b5f8054610123906101d7565b80601f016020809104026020016040519081016040528092919081815260200182805461014f906101d7565b801561019a5780601f106101715761010080835404028352916020019161019a565b820191905f5260205f20905b81548152906001019060200180831161017d57829003601f168201915b505050505081565b602081525f82518060208401528060208501604085015e5f604082850101526040601f19601f83011684010191505092915050565b600181811c908216806101eb57607f821691505b60208210810361020957634e487b7160e01b5f52602260045260245ffd5b5091905056fea2646970667358221220d310ff2b70dc23580dded2e1785e6af40faca315dedfda22d7cef698a53ba65b64736f6c634300081a0033",
			"opcodes": "PUSH1 0xC0 PUSH1 0x40 MSTORE PUSH1 0x5 PUSH1 0x80 SWAP1 DUP2 MSTORE PUSH5 0x2CB0B9B4B7 PUSH1 0xD9 SHL PUSH1 0xA0 MSTORE PUSH0 SWAP1 PUSH2 0x23 SWAP1 DUP3 PUSH2 0x10D JUMP JUMPDEST POP PUSH5 0x68656C6C6F PUSH1 0xD8 SHL PUSH1 0x1 SWAP1 DUP2 SSTORE PUSH1 0x2 SSTORE PUSH4 0x499602D2 PUSH1 0x3 SSTORE PUSH1 0x4 DUP1 SLOAD PUSH1 0x1 PUSH1 0x1 PUSH1 0xA8 SHL SUB NOT AND PUSH21 0x1F9840A85D5AF5BF1D1762F925BDADDC4201F98401 OR SWAP1 SSTORE CALLVALUE DUP1 ISZERO PUSH2 0x6F JUMPI PUSH0 DUP1 REVERT JUMPDEST POP PUSH2 0x1C7 JUMP JUMPDEST PUSH4 0x4E487B71 PUSH1 0xE0 SHL PUSH0 MSTORE PUSH1 0x41 PUSH1 0x4 MSTORE PUSH1 0x24 PUSH0 REVERT JUMPDEST PUSH1 0x1 DUP2 DUP2 SHR SWAP1 DUP3 AND DUP1 PUSH2 0x9D JUMPI PUSH1 0x7F DUP3 AND SWAP2 POP JUMPDEST PUSH1 0x20 DUP3 LT DUP2 SUB PUSH2 0xBB JUMPI PUSH4 0x4E487B71 PUSH1 0xE0 SHL PUSH0 MSTORE PUSH1 0x22 PUSH1 0x4 MSTORE PUSH1 0x24 PUSH0 REVERT JUMPDEST POP SWAP2 SWAP1 POP JUMP JUMPDEST PUSH1 0x1F DUP3 GT ISZERO PUSH2 0x108 JUMPI DUP1 PUSH0 MSTORE PUSH1 0x20 PUSH0 KECCAK256 PUSH1 0x1F DUP5 ADD PUSH1 0x5 SHR DUP2 ADD PUSH1 0x20 DUP6 LT ISZERO PUSH2 0xE6 JUMPI POP DUP1 JUMPDEST PUSH1 0x1F DUP5 ADD PUSH1 0x5 SHR DUP3 ADD SWAP2 POP JUMPDEST DUP2 DUP2 LT ISZERO PUSH2 0x105 JUMPI PUSH0 DUP2 SSTORE PUSH1 0x1 ADD PUSH2 0xF2 JUMP JUMPDEST POP POP JUMPDEST POP POP POP JUMP JUMPDEST DUP2 MLOAD PUSH1 0x1 PUSH1 0x1 PUSH1 0x40 SHL SUB DUP2 GT ISZERO PUSH2 0x126 JUMPI PUSH2 0x126 PUSH2 0x75 JUMP JUMPDEST PUSH2 0x13A DUP2 PUSH2 0x134 DUP5 SLOAD PUSH2 0x89 JUMP JUMPDEST DUP5 PUSH2 0xC1 JUMP JUMPDEST PUSH1 0x20 PUSH1 0x1F DUP3 GT PUSH1 0x1 DUP2 EQ PUSH2 0x16C JUMPI PUSH0 DUP4 ISZERO PUSH2 0x155 JUMPI POP DUP5 DUP3 ADD MLOAD JUMPDEST PUSH0 NOT PUSH1 0x3 DUP6 SWAP1 SHL SHR NOT AND PUSH1 0x1 DUP5 SWAP1 SHL OR DUP5 SSTORE PUSH2 0x105 JUMP JUMPDEST PUSH0 DUP5 DUP2 MSTORE PUSH1 0x20 DUP2 KECCAK256 PUSH1 0x1F NOT DUP6 AND SWAP2 JUMPDEST DUP3 DUP2 LT ISZERO PUSH2 0x19B JUMPI DUP8 DUP6 ADD MLOAD DUP3 SSTORE PUSH1 0x20 SWAP5 DUP6 ADD SWAP5 PUSH1 0x1 SWAP1 SWAP3 ADD SWAP2 ADD PUSH2 0x17B JUMP JUMPDEST POP DUP5 DUP3 LT ISZERO PUSH2 0x1B8 JUMPI DUP7 DUP5 ADD MLOAD PUSH0 NOT PUSH1 0x3 DUP8 SWAP1 SHL PUSH1 0xF8 AND SHR NOT AND DUP2 SSTORE JUMPDEST POP POP POP POP PUSH1 0x1 SWAP1 DUP2 SHL ADD SWAP1 SSTORE POP JUMP JUMPDEST PUSH2 0x245 DUP1 PUSH2 0x1D4 PUSH0 CODECOPY PUSH0 RETURN INVALID PUSH1 0x80 PUSH1 0x40 MSTORE CALLVALUE DUP1 ISZERO PUSH2 0xF JUMPI PUSH0 DUP1 REVERT JUMPDEST POP PUSH1 0x4 CALLDATASIZE LT PUSH2 0x7A JUMPI PUSH0 CALLDATALOAD PUSH1 0xE0 SHR DUP1 PUSH4 0x26B85EE1 GT PUSH2 0x58 JUMPI DUP1 PUSH4 0x26B85EE1 EQ PUSH2 0xB6 JUMPI DUP1 PUSH4 0x2CB777A6 EQ PUSH2 0xE6 JUMPI DUP1 PUSH4 0x712F4602 EQ PUSH2 0xEF JUMPI DUP1 PUSH4 0xE2A4B2AF EQ PUSH2 0xF8 JUMPI PUSH0 DUP1 REVERT JUMPDEST DUP1 PUSH4 0x6540F7E EQ PUSH2 0x7E JUMPI DUP1 PUSH4 0x6FDDE03 EQ PUSH2 0x9A JUMPI DUP1 PUSH4 0x20965255 EQ PUSH2 0xAF JUMPI JUMPDEST PUSH0 DUP1 REVERT JUMPDEST PUSH2 0x87 PUSH1 0x3 SLOAD DUP2 JUMP JUMPDEST PUSH1 0x40 MLOAD SWAP1 DUP2 MSTORE PUSH1 0x20 ADD JUMPDEST PUSH1 0x40 MLOAD DUP1 SWAP2 SUB SWAP1 RETURN JUMPDEST PUSH2 0xA2 PUSH2 0x117 JUMP JUMPDEST PUSH1 0x40 MLOAD PUSH2 0x91 SWAP2 SWAP1 PUSH2 0x1A2 JUMP JUMPDEST PUSH1 0x6 PUSH2 0x87 JUMP JUMPDEST PUSH1 0x4 SLOAD PUSH2 0xCE SWAP1 PUSH2 0x100 SWAP1 DIV PUSH1 0x1 PUSH1 0x1 PUSH1 0xA0 SHL SUB AND DUP2 JUMP JUMPDEST PUSH1 0x40 MLOAD PUSH1 0x1 PUSH1 0x1 PUSH1 0xA0 SHL SUB SWAP1 SWAP2 AND DUP2 MSTORE PUSH1 0x20 ADD PUSH2 0x91 JUMP JUMPDEST PUSH2 0x87 PUSH1 0x2 SLOAD DUP2 JUMP JUMPDEST PUSH2 0x87 PUSH1 0x1 SLOAD DUP2 JUMP JUMPDEST PUSH1 0x4 SLOAD PUSH2 0x105 SWAP1 PUSH1 0xFF AND DUP2 JUMP JUMPDEST PUSH1 0x40 MLOAD PUSH1 0xFF SWAP1 SWAP2 AND DUP2 MSTORE PUSH1 0x20 ADD PUSH2 0x91 JUMP JUMPDEST PUSH0 DUP1 SLOAD PUSH2 0x123 SWAP1 PUSH2 0x1D7 JUMP JUMPDEST DUP1 PUSH1 0x1F ADD PUSH1 0x20 DUP1 SWAP2 DIV MUL PUSH1 0x20 ADD PUSH1 0x40 MLOAD SWAP1 DUP2 ADD PUSH1 0x40 MSTORE DUP1 SWAP3 SWAP2 SWAP1 DUP2 DUP2 MSTORE PUSH1 0x20 ADD DUP3 DUP1 SLOAD PUSH2 0x14F SWAP1 PUSH2 0x1D7 JUMP JUMPDEST DUP1 ISZERO PUSH2 0x19A JUMPI DUP1 PUSH1 0x1F LT PUSH2 0x171 JUMPI PUSH2 0x100 DUP1 DUP4 SLOAD DIV MUL DUP4 MSTORE SWAP2 PUSH1 0x20 ADD SWAP2 PUSH2 0x19A JUMP JUMPDEST DUP3 ADD SWAP2 SWAP1 PUSH0 MSTORE PUSH1 0x20 PUSH0 KECCAK256 SWAP1 JUMPDEST DUP2 SLOAD DUP2 MSTORE SWAP1 PUSH1 0x1 ADD SWAP1 PUSH1 0x20 ADD DUP1 DUP4 GT PUSH2 0x17D JUMPI DUP3 SWAP1 SUB PUSH1 0x1F AND DUP3 ADD SWAP2 JUMPDEST POP POP POP POP POP DUP2 JUMP JUMPDEST PUSH1 0x20 DUP2 MSTORE PUSH0 DUP3 MLOAD DUP1 PUSH1 0x20 DUP5 ADD MSTORE DUP1 PUSH1 0x20 DUP6 ADD PUSH1 0x40 DUP6 ADD MCOPY PUSH0 PUSH1 0x40 DUP3 DUP6 ADD ADD MSTORE PUSH1 0x40 PUSH1 0x1F NOT PUSH1 0x1F DUP4 ADD AND DUP5 ADD ADD SWAP2 POP POP SWAP3 SWAP2 POP POP JUMP JUMPDEST PUSH1 0x1 DUP2 DUP2 SHR SWAP1 DUP3 AND DUP1 PUSH2 0x1EB JUMPI PUSH1 0x7F DUP3 AND SWAP2 POP JUMPDEST PUSH1 0x20 DUP3 LT DUP2 SUB PUSH2 0x209 JUMPI PUSH4 0x4E487B71 PUSH1 0xE0 SHL PUSH0 MSTORE PUSH1 0x22 PUSH1 0x4 MSTORE PUSH1 0x24 PUSH0 REVERT JUMPDEST POP SWAP2 SWAP1 POP JUMP INVALID LOG2 PUSH5 0x6970667358 0x22 SLT KECCAK256 0xD3 LT SELFDESTRUCT 0x2B PUSH17 0xDC23580DDED2E1785E6AF40FACA315DEDF 0xDA 0x22 0xD7 0xCE 0xF6 SWAP9 0xA5 EXTCODESIZE 0xA6 JUMPDEST PUSH5 0x736F6C6343 STOP ADDMOD BYTE STOP CALLER "
		},
		"gasEstimates": {
			"creation": {
				"codeDepositCost": "116200",
				"executionCost": "infinite",
				"totalCost": "infinite"
			},
			"external": {
				"getValue()": "225",
				"myAddress()": "2347",
				"myBytes()": "2327",
				"myInt()": "2305",
				"myUint()": "2284",
				"myUint8()": "2378",
				"name()": "infinite"
			}
		},
		"methodIdentifiers": {
			"getValue()": "20965255",
			"myAddress()": "26b85ee1",
			"myBytes()": "712f4602",
			"myInt()": "2cb777a6",
			"myUint()": "06540f7e",
			"myUint8()": "e2a4b2af",
			"name()": "06fdde03"
		}
	},
	"abi": [
		{
			"inputs": [],
			"name": "getValue",
			"outputs": [
				{
					"internalType": "uint256",
					"name": "",
					"type": "uint256"
				}
			],
			"stateMutability": "pure",
			"type": "function"
		},
		{
			"inputs": [],
			"name": "myAddress",
			"outputs": [
				{
					"internalType": "address",
					"name": "",
					"type": "address"
				}
			],
			"stateMutability": "view",
			"type": "function"
		},
		{
			"inputs": [],
			"name": "myBytes",
			"outputs": [
				{
					"internalType": "bytes32",
					"name": "",
					"type": "bytes32"
				}
			],
			"stateMutability": "view",
			"type": "function"
		},
		{
			"inputs": [],
			"name": "myInt",
			"outputs": [
				{
					"internalType": "int256",
					"name": "",
					"type": "int256"
				}
			],
			"stateMutability": "view",
			"type": "function"
		},
		{
			"inputs": [],
			"name": "myUint",
			"outputs": [
				{
					"internalType": "uint256",
					"name": "",
					"type": "uint256"
				}
			],
			"stateMutability": "view",
			"type": "function"
		},
		{
			"inputs": [],
			"name": "myUint8",
			"outputs": [
				{
					"internalType": "uint8",
					"name": "",
					"type": "uint8"
				}
			],
			"stateMutability": "view",
			"type": "function"
		},
		{
			"inputs": [],
			"name": "name",
			"outputs": [
				{
					"internalType": "string",
					"name": "",
					"type": "string"
				}
			],
			"stateMutability": "view",
			"type": "function"
		}
	]
}