{
	"data": {
		"bytecode": {
			"linkReferences": {},
			"object": "6080604052600a5f556014600155601e600255602860035560326004553480156026575f80fd5b50610269806100345f395ff3fe608060405234801561000f575f80fd5b506004361061009b575f3560e01c8063815f214711610063578063815f2147146100db57806399130cc4146100e3578063c54124be146100eb578063d14d42ba146100f4578063f9fa48c3146100fc575f80fd5b80632986e0541461009f578063488f38db146100ba5780634f2be91f146100c257806358931c46146100ca5780636457750c146100d3575b5f80fd5b6100a860045481565b60405190815260200160405180910390f35b6100a8610105565b6100a85f5481565b6100a860025481565b6100a8610125565b6100a8610145565b6100a8610165565b6100a860015481565b6100a8610184565b6100a860035481565b5f600260035f82825461011891906101ca565b9091555050600354919050565b5f600260045f82825461013891906101dd565b9091555050600454919050565b5f600a60015f82825461015891906101f0565b9091555050600154919050565b5f6002805f8282546101779190610209565b9091555050600254919050565b5f600a5f808282546101969190610220565b90915550505f54919050565b634e487b7160e01b5f52601260045260245ffd5b634e487b7160e01b5f52601160045260245ffd5b5f826101d8576101d86101a2565b500490565b5f826101eb576101eb6101a2565b500690565b81810381811115610203576102036101b6565b92915050565b8082028115828204841417610203576102036101b6565b80820180821115610203576102036101b656fea2646970667358221220646a0edfc57c4ad408295a1d94c891c6de82458ff570a44dc37f55a22f78273164736f6c634300081a0033",
			"opcodes": "PUSH1 0x80 PUSH1 0x40 MSTORE PUSH1 0xA PUSH0 SSTORE PUSH1 0x14 PUSH1 0x1 SSTORE PUSH1 0x1E PUSH1 0x2 SSTORE PUSH1 0x28 PUSH1 0x3 SSTORE PUSH1 0x32 PUSH1 0x4 SSTORE CALLVALUE DUP1 ISZERO PUSH1 0x26 JUMPI PUSH0 DUP1 REVERT JUMPDEST POP PUSH2 0x269 DUP1 PUSH2 0x34 PUSH0 CODECOPY PUSH0 RETURN INVALID PUSH1 0x80 PUSH1 0x40 MSTORE CALLVALUE DUP1 ISZERO PUSH2 0xF JUMPI PUSH0 DUP1 REVERT JUMPDEST POP PUSH1 0x4 CALLDATASIZE LT PUSH2 0x9B JUMPI PUSH0 CALLDATALOAD PUSH1 0xE0 SHR DUP1 PUSH4 0x815F2147 GT PUSH2 0x63 JUMPI DUP1 PUSH4 0x815F2147 EQ PUSH2 0xDB JUMPI DUP1 PUSH4 0x99130CC4 EQ PUSH2 0xE3 JUMPI DUP1 PUSH4 0xC54124BE EQ PUSH2 0xEB JUMPI DUP1 PUSH4 0xD14D42BA EQ PUSH2 0xF4 JUMPI DUP1 PUSH4 0xF9FA48C3 EQ PUSH2 0xFC JUMPI PUSH0 DUP1 REVERT JUMPDEST DUP1 PUSH4 0x2986E054 EQ PUSH2 0x9F JUMPI DUP1 PUSH4 0x488F38DB EQ PUSH2 0xBA JUMPI DUP1 PUSH4 0x4F2BE91F EQ PUSH2 0xC2 JUMPI DUP1 PUSH4 0x58931C46 EQ PUSH2 0xCA JUMPI DUP1 PUSH4 0x6457750C EQ PUSH2 0xD3 JUMPI JUMPDEST PUSH0 DUP1 REVERT JUMPDEST PUSH2 0xA8 PUSH1 0x4 SLOAD DUP2 JUMP JUMPDEST PUSH1 0x40 MLOAD SWAP1 DUP2 MSTORE PUSH1 0x20 ADD PUSH1 0x40 MLOAD DUP1 SWAP2 SUB SWAP1 RETURN JUMPDEST PUSH2 0xA8 PUSH2 0x105 JUMP JUMPDEST PUSH2 0xA8 PUSH0 SLOAD DUP2 JUMP JUMPDEST PUSH2 0xA8 PUSH1 0x2 SLOAD DUP2 JUMP JUMPDEST PUSH2 0xA8 PUSH2 0x125 JUMP JUMPDEST PUSH2 0xA8 PUSH2 0x145 JUMP JUMPDEST PUSH2 0xA8 PUSH2 0x165 JUMP JUMPDEST PUSH2 0xA8 PUSH1 0x1 SLOAD DUP2 JUMP JUMPDEST PUSH2 0xA8 PUSH2 0x184 JUMP JUMPDEST PUSH2 0xA8 PUSH1 0x3 SLOAD DUP2 JUMP JUMPDEST PUSH0 PUSH1 0x2 PUSH1 0x3 PUSH0 DUP3 DUP3 SLOAD PUSH2 0x118 SWAP2 SWAP1 PUSH2 0x1CA JUMP JUMPDEST SWAP1 SWAP2 SSTORE POP POP PUSH1 0x3 SLOAD SWAP2 SWAP1 POP JUMP JUMPDEST PUSH0 PUSH1 0x2 PUSH1 0x4 PUSH0 DUP3 DUP3 SLOAD PUSH2 0x138 SWAP2 SWAP1 PUSH2 0x1DD JUMP JUMPDEST SWAP1 SWAP2 SSTORE POP POP PUSH1 0x4 SLOAD SWAP2 SWAP1 POP JUMP JUMPDEST PUSH0 PUSH1 0xA PUSH1 0x1 PUSH0 DUP3 DUP3 SLOAD PUSH2 0x158 SWAP2 SWAP1 PUSH2 0x1F0 JUMP JUMPDEST SWAP1 SWAP2 SSTORE POP POP PUSH1 0x1 SLOAD SWAP2 SWAP1 POP JUMP JUMPDEST PUSH0 PUSH1 0x2 DUP1 PUSH0 DUP3 DUP3 SLOAD PUSH2 0x177 SWAP2 SWAP1 PUSH2 0x209 JUMP JUMPDEST SWAP1 SWAP2 SSTORE POP POP PUSH1 0x2 SLOAD SWAP2 SWAP1 POP JUMP JUMPDEST PUSH0 PUSH1 0xA PUSH0 DUP1 DUP3 DUP3 SLOAD PUSH2 0x196 SWAP2 SWAP1 PUSH2 0x220 JUMP JUMPDEST SWAP1 SWAP2 SSTORE POP POP PUSH0 SLOAD SWAP2 SWAP1 POP JUMP JUMPDEST PUSH4 0x4E487B71 PUSH1 0xE0 SHL PUSH0 MSTORE PUSH1 0x12 PUSH1 0x4 MSTORE PUSH1 0x24 PUSH0 REVERT JUMPDEST PUSH4 0x4E487B71 PUSH1 0xE0 SHL PUSH0 MSTORE PUSH1 0x11 PUSH1 0x4 MSTORE PUSH1 0x24 PUSH0 REVERT JUMPDEST PUSH0 DUP3 PUSH2 0x1D8 JUMPI PUSH2 0x1D8 PUSH2 0x1A2 JUMP JUMPDEST POP DIV SWAP1 JUMP JUMPDEST PUSH0 DUP3 PUSH2 0x1EB JUMPI PUSH2 0x1EB PUSH2 0x1A2 JUMP JUMPDEST POP MOD SWAP1 JUMP JUMPDEST DUP2 DUP2 SUB DUP2 DUP2 GT ISZERO PUSH2 0x203 JUMPI PUSH2 0x203 PUSH2 0x1B6 JUMP JUMPDEST SWAP3 SWAP2 POP POP JUMP JUMPDEST DUP1 DUP3 MUL DUP2 ISZERO DUP3 DUP3 DIV DUP5 EQ OR PUSH2 0x203 JUMPI PUSH2 0x203 PUSH2 0x1B6 JUMP JUMPDEST DUP1 DUP3 ADD DUP1 DUP3 GT ISZERO PUSH2 0x203 JUMPI PUSH2 0x203 PUSH2 0x1B6 JUMP INVALID LOG2 PUSH5 0x6970667358 0x22 SLT KECCAK256 PUSH5 0x6A0EDFC57C BLOBBASEFEE 0xD4 ADDMOD 0x29 GAS SAR SWAP5 0xC8 SWAP2 0xC6 0xDE DUP3 GASLIMIT DUP16 CREATE2 PUSH17 0xA44DC37F55A22F78273164736F6C634300 ADDMOD BYTE STOP CALLER "
		},
		"gasEstimates": {
			"creation": {
				"codeDepositCost": "123400",
				"executionCost": "110698",
				"totalCost": "234098"
			},
			"external": {
				"add()": "2326",
				"div()": "2370",
				"getAdd()": "26665",
				"getDiv()": "26607",
				"getMod()": "26673",
				"getMul()": "26638",
				"getSub()": "26600",
				"mod()": "2283",
				"mul()": "2349",
				"sub()": "2326"
			}
		},
		"methodIdentifiers": {
			"add()": "4f2be91f",
			"div()": "f9fa48c3",
			"getAdd()": "d14d42ba",
			"getDiv()": "488f38db",
			"getMod()": "6457750c",
			"getMul()": "99130cc4",
			"getSub()": "815f2147",
			"mod()": "2986e054",
			"mul()": "58931c46",
			"sub()": "c54124be"
		}
	},
	"abi": [
		{
			"inputs": [],
			"name": "add",
			"outputs": [
				{
					"internalType": "uint256",
					"name": "",
					"type": "uint256"
				}
			],
			"stateMutability": "view",
			"type": "function"
		},
		{
			"inputs": [],
			"name": "div",
			"outputs": [
				{
					"internalType": "uint256",
					"name": "",
					"type": "uint256"
				}
			],
			"stateMutability": "view",
			"type": "function"
		},
		{
			"inputs": [],
			"name": "getAdd",
			"outputs": [
				{
					"internalType": "uint256",
					"name": "",
					"type": "uint256"
				}
			],
			"stateMutability": "nonpayable",
			"type": "function"
		},
		{
			"inputs": [],
			"name": "getDiv",
			"outputs": [
				{
					"internalType": "uint256",
					"name": "",
					"type": "uint256"
				}
			],
			"stateMutability": "nonpayable",
			"type": "function"
		},
		{
			"inputs": [],
			"name": "getMod",
			"outputs": [
				{
					"internalType": "uint256",
					"name": "",
					"type": "uint256"
				}
			],
			"stateMutability": "nonpayable",
			"type": "function"
		},
		{
			"inputs": [],
			"name": "getMul",
			"outputs": [
				{
					"internalType": "uint256",
					"name": "",
					"type": "uint256"
				}
			],
			"stateMutability": "nonpayable",
			"type": "function"
		},
		{
			"inputs": [],
			"name": "getSub",
			"outputs": [
				{
					"internalType": "uint256",
					"name": "",
					"type": "uint256"
				}
			],
			"stateMutability": "nonpayable",
			"type": "function"
		},
		{
			"inputs": [],
			"name": "mod",
			"outputs": [
				{
					"internalType": "uint256",
					"name": "",
					"type": "uint256"
				}
			],
			"stateMutability": "view",
			"type": "function"
		},
		{
			"inputs": [],
			"name": "mul",
			"outputs": [
				{
					"internalType": "uint256",
					"name": "",
					"type": "uint256"
				}
			],
			"stateMutability": "view",
			"type": "function"
		},
		{
			"inputs": [],
			"name": "sub",
			"outputs": [
				{
					"internalType": "uint256",
					"name": "",
					"type": "uint256"
				}
			],
			"stateMutability": "view",
			"type": "function"
		}
	]
}