{
	"contracts/day_1/9.Events.sol": {
		"Events": {
			"abi": [
				{
					"anonymous": false,
					"inputs": [
						{
							"indexed": false,
							"internalType": "string",
							"name": "_name",
							"type": "string"
						}
					],
					"name": "nameOfEvent",
					"type": "event"
				},
				{
					"inputs": [
						{
							"internalType": "string",
							"name": "_name",
							"type": "string"
						}
					],
					"name": "setName",
					"outputs": [],
					"stateMutability": "nonpayable",
					"type": "function"
				}
			],
			"devdoc": {
				"kind": "dev",
				"methods": {},
				"version": 1
			},
			"evm": {
				"assembly": "    /* \"contracts/day_1/9.Events.sol\":63:266  contract Events{... */\n  mstore(0x40, 0x80)\n  callvalue\n  dup1\n  iszero\n  tag_1\n  jumpi\n  0x00\n  dup1\n  revert\ntag_1:\n  pop\n  dataSize(sub_0)\n  dup1\n  dataOffset(sub_0)\n  0x00\n  codecopy\n  0x00\n  return\nstop\n\nsub_0: assembly {\n        /* \"contracts/day_1/9.Events.sol\":63:266  contract Events{... */\n      mstore(0x40, 0x80)\n      callvalue\n      dup1\n      iszero\n      tag_1\n      jumpi\n      0x00\n      dup1\n      revert\n    tag_1:\n      pop\n      jumpi(tag_2, lt(calldatasize, 0x04))\n      shr(0xe0, calldataload(0x00))\n      dup1\n      0xc47f0027\n      eq\n      tag_3\n      jumpi\n    tag_2:\n      0x00\n      dup1\n      revert\n        /* \"contracts/day_1/9.Events.sol\":153:263  function setName(string memory _name) public {... */\n    tag_3:\n      tag_4\n      tag_5\n      calldatasize\n      0x04\n      tag_6\n      jump\t// in\n    tag_5:\n      tag_7\n      jump\t// in\n    tag_4:\n      stop\n    tag_7:\n        /* \"contracts/day_1/9.Events.sol\":209:213  name */\n      0x00\n        /* \"contracts/day_1/9.Events.sol\":209:221  name = _name */\n      tag_9\n        /* \"contracts/day_1/9.Events.sol\":216:221  _name */\n      dup3\n        /* \"contracts/day_1/9.Events.sol\":209:213  name */\n      dup3\n        /* \"contracts/day_1/9.Events.sol\":209:221  name = _name */\n      tag_10\n      jump\t// in\n    tag_9:\n      pop\n        /* \"contracts/day_1/9.Events.sol\":237:255  nameOfEvent(_name) */\n      0xc5c0a70706c07d9912c17baf1e039b33e6fc2a55c952eb6bb44c285a10467501\n        /* \"contracts/day_1/9.Events.sol\":249:254  _name */\n      dup2\n        /* \"contracts/day_1/9.Events.sol\":237:255  nameOfEvent(_name) */\n      mload(0x40)\n      tag_11\n      swap2\n      swap1\n      tag_12\n      jump\t// in\n    tag_11:\n      mload(0x40)\n      dup1\n      swap2\n      sub\n      swap1\n      log1\n        /* \"contracts/day_1/9.Events.sol\":153:263  function setName(string memory _name) public {... */\n      pop\n      jump\t// out\n        /* \"#utility.yul\":14:141   */\n    tag_13:\n        /* \"#utility.yul\":75:85   */\n      0x4e487b71\n        /* \"#utility.yul\":70:73   */\n      0xe0\n        /* \"#utility.yul\":66:86   */\n      shl\n        /* \"#utility.yul\":63:64   */\n      0x00\n        /* \"#utility.yul\":56:87   */\n      mstore\n        /* \"#utility.yul\":106:110   */\n      0x41\n        /* \"#utility.yul\":103:104   */\n      0x04\n        /* \"#utility.yul\":96:111   */\n      mstore\n        /* \"#utility.yul\":130:134   */\n      0x24\n        /* \"#utility.yul\":127:128   */\n      0x00\n        /* \"#utility.yul\":120:135   */\n      revert\n        /* \"#utility.yul\":146:1091   */\n    tag_6:\n        /* \"#utility.yul\":215:221   */\n      0x00\n        /* \"#utility.yul\":268:270   */\n      0x20\n        /* \"#utility.yul\":256:265   */\n      dup3\n        /* \"#utility.yul\":247:254   */\n      dup5\n        /* \"#utility.yul\":243:266   */\n      sub\n        /* \"#utility.yul\":239:271   */\n      slt\n        /* \"#utility.yul\":236:288   */\n      iszero\n      tag_21\n      jumpi\n        /* \"#utility.yul\":284:285   */\n      0x00\n        /* \"#utility.yul\":281:282   */\n      dup1\n        /* \"#utility.yul\":274:286   */\n      revert\n        /* \"#utility.yul\":236:288   */\n    tag_21:\n        /* \"#utility.yul\":324:333   */\n      dup2\n        /* \"#utility.yul\":311:334   */\n      calldataload\n        /* \"#utility.yul\":357:375   */\n      0xffffffffffffffff\n        /* \"#utility.yul\":349:355   */\n      dup2\n        /* \"#utility.yul\":346:376   */\n      gt\n        /* \"#utility.yul\":343:393   */\n      iszero\n      tag_22\n      jumpi\n        /* \"#utility.yul\":389:390   */\n      0x00\n        /* \"#utility.yul\":386:387   */\n      dup1\n        /* \"#utility.yul\":379:391   */\n      revert\n        /* \"#utility.yul\":343:393   */\n    tag_22:\n        /* \"#utility.yul\":412:434   */\n      dup3\n      add\n        /* \"#utility.yul\":465:469   */\n      0x1f\n        /* \"#utility.yul\":457:470   */\n      dup2\n      add\n        /* \"#utility.yul\":453:480   */\n      dup5\n      sgt\n        /* \"#utility.yul\":443:498   */\n      tag_23\n      jumpi\n        /* \"#utility.yul\":494:495   */\n      0x00\n        /* \"#utility.yul\":491:492   */\n      dup1\n        /* \"#utility.yul\":484:496   */\n      revert\n        /* \"#utility.yul\":443:498   */\n    tag_23:\n        /* \"#utility.yul\":534:536   */\n      dup1\n        /* \"#utility.yul\":521:537   */\n      calldataload\n        /* \"#utility.yul\":560:578   */\n      0xffffffffffffffff\n        /* \"#utility.yul\":552:558   */\n      dup2\n        /* \"#utility.yul\":549:579   */\n      gt\n        /* \"#utility.yul\":546:602   */\n      iszero\n      tag_25\n      jumpi\n        /* \"#utility.yul\":582:600   */\n      tag_25\n      tag_13\n      jump\t// in\n    tag_25:\n        /* \"#utility.yul\":631:633   */\n      0x40\n        /* \"#utility.yul\":625:634   */\n      mload\n        /* \"#utility.yul\":723:725   */\n      0x1f\n        /* \"#utility.yul\":685:702   */\n      dup3\n      add\n      not(0x1f)\n        /* \"#utility.yul\":681:712   */\n      swap1\n      dup2\n      and\n        /* \"#utility.yul\":714:716   */\n      0x3f\n        /* \"#utility.yul\":677:717   */\n      add\n        /* \"#utility.yul\":673:727   */\n      and\n        /* \"#utility.yul\":661:728   */\n      dup2\n      add\n        /* \"#utility.yul\":758:776   */\n      0xffffffffffffffff\n        /* \"#utility.yul\":743:777   */\n      dup2\n      gt\n        /* \"#utility.yul\":779:801   */\n      dup3\n      dup3\n      lt\n        /* \"#utility.yul\":740:802   */\n      or\n        /* \"#utility.yul\":737:825   */\n      iszero\n      tag_27\n      jumpi\n        /* \"#utility.yul\":805:823   */\n      tag_27\n      tag_13\n      jump\t// in\n    tag_27:\n        /* \"#utility.yul\":841:843   */\n      0x40\n        /* \"#utility.yul\":834:856   */\n      mstore\n        /* \"#utility.yul\":865:887   */\n      dup2\n      dup2\n      mstore\n        /* \"#utility.yul\":906:921   */\n      dup3\n      dup3\n      add\n        /* \"#utility.yul\":923:925   */\n      0x20\n        /* \"#utility.yul\":902:926   */\n      add\n        /* \"#utility.yul\":899:936   */\n      dup7\n      lt\n        /* \"#utility.yul\":896:953   */\n      iszero\n      tag_28\n      jumpi\n        /* \"#utility.yul\":949:950   */\n      0x00\n        /* \"#utility.yul\":946:947   */\n      dup1\n        /* \"#utility.yul\":939:951   */\n      revert\n        /* \"#utility.yul\":896:953   */\n    tag_28:\n        /* \"#utility.yul\":1005:1011   */\n      dup2\n        /* \"#utility.yul\":1000:1002   */\n      0x20\n        /* \"#utility.yul\":996:998   */\n      dup5\n        /* \"#utility.yul\":992:1003   */\n      add\n        /* \"#utility.yul\":987:989   */\n      0x20\n        /* \"#utility.yul\":979:985   */\n      dup4\n        /* \"#utility.yul\":975:990   */\n      add\n        /* \"#utility.yul\":962:1012   */\n      calldatacopy\n        /* \"#utility.yul\":1058:1059   */\n      0x00\n        /* \"#utility.yul\":1032:1051   */\n      swap2\n      dup2\n      add\n        /* \"#utility.yul\":1053:1055   */\n      0x20\n        /* \"#utility.yul\":1028:1056   */\n      add\n        /* \"#utility.yul\":1021:1060   */\n      swap2\n      swap1\n      swap2\n      mstore\n        /* \"#utility.yul\":1036:1042   */\n      swap5\n        /* \"#utility.yul\":146:1091   */\n      swap4\n      pop\n      pop\n      pop\n      pop\n      jump\t// out\n        /* \"#utility.yul\":1096:1476   */\n    tag_14:\n        /* \"#utility.yul\":1175:1176   */\n      0x01\n        /* \"#utility.yul\":1171:1183   */\n      dup2\n      dup2\n      shr\n      swap1\n        /* \"#utility.yul\":1218:1230   */\n      dup3\n      and\n      dup1\n        /* \"#utility.yul\":1239:1300   */\n      tag_30\n      jumpi\n        /* \"#utility.yul\":1293:1297   */\n      0x7f\n        /* \"#utility.yul\":1285:1291   */\n      dup3\n        /* \"#utility.yul\":1281:1298   */\n      and\n        /* \"#utility.yul\":1271:1298   */\n      swap2\n      pop\n        /* \"#utility.yul\":1239:1300   */\n    tag_30:\n        /* \"#utility.yul\":1346:1348   */\n      0x20\n        /* \"#utility.yul\":1338:1344   */\n      dup3\n        /* \"#utility.yul\":1335:1349   */\n      lt\n        /* \"#utility.yul\":1315:1333   */\n      dup2\n        /* \"#utility.yul\":1312:1350   */\n      sub\n        /* \"#utility.yul\":1309:1470   */\n      tag_31\n      jumpi\n        /* \"#utility.yul\":1392:1402   */\n      0x4e487b71\n        /* \"#utility.yul\":1387:1390   */\n      0xe0\n        /* \"#utility.yul\":1383:1403   */\n      shl\n        /* \"#utility.yul\":1380:1381   */\n      0x00\n        /* \"#utility.yul\":1373:1404   */\n      mstore\n        /* \"#utility.yul\":1427:1431   */\n      0x22\n        /* \"#utility.yul\":1424:1425   */\n      0x04\n        /* \"#utility.yul\":1417:1432   */\n      mstore\n        /* \"#utility.yul\":1455:1459   */\n      0x24\n        /* \"#utility.yul\":1452:1453   */\n      0x00\n        /* \"#utility.yul\":1445:1460   */\n      revert\n        /* \"#utility.yul\":1309:1470   */\n    tag_31:\n      pop\n        /* \"#utility.yul\":1096:1476   */\n      swap2\n      swap1\n      pop\n      jump\t// out\n        /* \"#utility.yul\":1607:2125   */\n    tag_16:\n        /* \"#utility.yul\":1709:1711   */\n      0x1f\n        /* \"#utility.yul\":1704:1707   */\n      dup3\n        /* \"#utility.yul\":1701:1712   */\n      gt\n        /* \"#utility.yul\":1698:2119   */\n      iszero\n      tag_34\n      jumpi\n        /* \"#utility.yul\":1745:1750   */\n      dup1\n        /* \"#utility.yul\":1742:1743   */\n      0x00\n        /* \"#utility.yul\":1735:1751   */\n      mstore\n        /* \"#utility.yul\":1789:1793   */\n      0x20\n        /* \"#utility.yul\":1786:1787   */\n      0x00\n        /* \"#utility.yul\":1776:1794   */\n      keccak256\n        /* \"#utility.yul\":1859:1861   */\n      0x1f\n        /* \"#utility.yul\":1847:1857   */\n      dup5\n        /* \"#utility.yul\":1843:1862   */\n      add\n        /* \"#utility.yul\":1840:1841   */\n      0x05\n        /* \"#utility.yul\":1836:1863   */\n      shr\n        /* \"#utility.yul\":1830:1834   */\n      dup2\n        /* \"#utility.yul\":1826:1864   */\n      add\n        /* \"#utility.yul\":1895:1899   */\n      0x20\n        /* \"#utility.yul\":1883:1893   */\n      dup6\n        /* \"#utility.yul\":1880:1900   */\n      lt\n        /* \"#utility.yul\":1877:1924   */\n      iszero\n      tag_35\n      jumpi\n      pop\n        /* \"#utility.yul\":1918:1922   */\n      dup1\n        /* \"#utility.yul\":1877:1924   */\n    tag_35:\n        /* \"#utility.yul\":1973:1975   */\n      0x1f\n        /* \"#utility.yul\":1968:1971   */\n      dup5\n        /* \"#utility.yul\":1964:1976   */\n      add\n        /* \"#utility.yul\":1961:1962   */\n      0x05\n        /* \"#utility.yul\":1957:1977   */\n      shr\n        /* \"#utility.yul\":1951:1955   */\n      dup3\n        /* \"#utility.yul\":1947:1978   */\n      add\n        /* \"#utility.yul\":1937:1978   */\n      swap2\n      pop\n        /* \"#utility.yul\":2028:2109   */\n    tag_36:\n        /* \"#utility.yul\":2046:2048   */\n      dup2\n        /* \"#utility.yul\":2039:2044   */\n      dup2\n        /* \"#utility.yul\":2036:2049   */\n      lt\n        /* \"#utility.yul\":2028:2109   */\n      iszero\n      tag_38\n      jumpi\n        /* \"#utility.yul\":2105:2106   */\n      0x00\n        /* \"#utility.yul\":2091:2107   */\n      dup2\n      sstore\n        /* \"#utility.yul\":2072:2073   */\n      0x01\n        /* \"#utility.yul\":2061:2074   */\n      add\n        /* \"#utility.yul\":2028:2109   */\n      jump(tag_36)\n    tag_38:\n        /* \"#utility.yul\":2032:2035   */\n      pop\n      pop\n        /* \"#utility.yul\":1698:2119   */\n    tag_34:\n        /* \"#utility.yul\":1607:2125   */\n      pop\n      pop\n      pop\n      jump\t// out\n        /* \"#utility.yul\":2301:3600   */\n    tag_10:\n        /* \"#utility.yul\":2427:2430   */\n      dup2\n        /* \"#utility.yul\":2421:2431   */\n      mload\n        /* \"#utility.yul\":2454:2472   */\n      0xffffffffffffffff\n        /* \"#utility.yul\":2446:2452   */\n      dup2\n        /* \"#utility.yul\":2443:2473   */\n      gt\n        /* \"#utility.yul\":2440:2496   */\n      iszero\n      tag_42\n      jumpi\n        /* \"#utility.yul\":2476:2494   */\n      tag_42\n      tag_13\n      jump\t// in\n    tag_42:\n        /* \"#utility.yul\":2505:2602   */\n      tag_43\n        /* \"#utility.yul\":2595:2601   */\n      dup2\n        /* \"#utility.yul\":2555:2593   */\n      tag_44\n        /* \"#utility.yul\":2587:2591   */\n      dup5\n        /* \"#utility.yul\":2581:2592   */\n      sload\n        /* \"#utility.yul\":2555:2593   */\n      tag_14\n      jump\t// in\n    tag_44:\n        /* \"#utility.yul\":2549:2553   */\n      dup5\n        /* \"#utility.yul\":2505:2602   */\n      tag_16\n      jump\t// in\n    tag_43:\n        /* \"#utility.yul\":2651:2655   */\n      0x20\n        /* \"#utility.yul\":2682:2684   */\n      0x1f\n        /* \"#utility.yul\":2671:2685   */\n      dup3\n      gt\n        /* \"#utility.yul\":2699:2700   */\n      0x01\n        /* \"#utility.yul\":2694:3343   */\n      dup2\n      eq\n      tag_46\n      jumpi\n        /* \"#utility.yul\":3387:3388   */\n      0x00\n        /* \"#utility.yul\":3404:3410   */\n      dup4\n        /* \"#utility.yul\":3401:3490   */\n      iszero\n      tag_47\n      jumpi\n      pop\n        /* \"#utility.yul\":3456:3475   */\n      dup5\n      dup3\n      add\n        /* \"#utility.yul\":3450:3476   */\n      mload\n        /* \"#utility.yul\":3401:3490   */\n    tag_47:\n      not(0x00)\n        /* \"#utility.yul\":2258:2259   */\n      0x03\n        /* \"#utility.yul\":2254:2265   */\n      dup6\n      swap1\n      shl\n        /* \"#utility.yul\":2250:2274   */\n      shr\n        /* \"#utility.yul\":2246:2275   */\n      not\n        /* \"#utility.yul\":2236:2276   */\n      and\n        /* \"#utility.yul\":2282:2283   */\n      0x01\n        /* \"#utility.yul\":2278:2289   */\n      dup5\n      swap1\n      shl\n        /* \"#utility.yul\":2233:2290   */\n      or\n        /* \"#utility.yul\":3503:3584   */\n      dup5\n      sstore\n        /* \"#utility.yul\":2664:3594   */\n      jump(tag_38)\n        /* \"#utility.yul\":2694:3343   */\n    tag_46:\n        /* \"#utility.yul\":1554:1555   */\n      0x00\n        /* \"#utility.yul\":1547:1561   */\n      dup5\n      dup2\n      mstore\n        /* \"#utility.yul\":1591:1595   */\n      0x20\n        /* \"#utility.yul\":1578:1596   */\n      dup2\n      keccak256\n      not(0x1f)\n        /* \"#utility.yul\":2730:2750   */\n      dup6\n      and\n      swap2\n        /* \"#utility.yul\":2848:3070   */\n    tag_50:\n        /* \"#utility.yul\":2862:2869   */\n      dup3\n        /* \"#utility.yul\":2859:2860   */\n      dup2\n        /* \"#utility.yul\":2856:2870   */\n      lt\n        /* \"#utility.yul\":2848:3070   */\n      iszero\n      tag_52\n      jumpi\n        /* \"#utility.yul\":2944:2963   */\n      dup8\n      dup6\n      add\n        /* \"#utility.yul\":2938:2964   */\n      mload\n        /* \"#utility.yul\":2923:2965   */\n      dup3\n      sstore\n        /* \"#utility.yul\":3051:3055   */\n      0x20\n        /* \"#utility.yul\":3036:3056   */\n      swap5\n      dup6\n      add\n      swap5\n        /* \"#utility.yul\":3004:3005   */\n      0x01\n        /* \"#utility.yul\":2992:3006   */\n      swap1\n      swap3\n      add\n      swap2\n        /* \"#utility.yul\":2878:2890   */\n      add\n        /* \"#utility.yul\":2848:3070   */\n      jump(tag_50)\n    tag_52:\n        /* \"#utility.yul\":2852:2855   */\n      pop\n        /* \"#utility.yul\":3098:3104   */\n      dup5\n        /* \"#utility.yul\":3089:3096   */\n      dup3\n        /* \"#utility.yul\":3086:3105   */\n      lt\n        /* \"#utility.yul\":3083:3284   */\n      iszero\n      tag_53\n      jumpi\n        /* \"#utility.yul\":3159:3178   */\n      dup7\n      dup5\n      add\n        /* \"#utility.yul\":3153:3179   */\n      mload\n      not(0x00)\n        /* \"#utility.yul\":3242:3243   */\n      0x03\n        /* \"#utility.yul\":3238:3252   */\n      dup8\n      swap1\n      shl\n        /* \"#utility.yul\":3254:3257   */\n      0xf8\n        /* \"#utility.yul\":3234:3258   */\n      and\n        /* \"#utility.yul\":3230:3267   */\n      shr\n        /* \"#utility.yul\":3226:3268   */\n      not\n        /* \"#utility.yul\":3211:3269   */\n      and\n        /* \"#utility.yul\":3196:3270   */\n      dup2\n      sstore\n        /* \"#utility.yul\":3083:3284   */\n    tag_53:\n      pop\n      pop\n      pop\n      pop\n        /* \"#utility.yul\":3330:3331   */\n      0x01\n        /* \"#utility.yul\":3314:3328   */\n      swap1\n      dup2\n      shl\n        /* \"#utility.yul\":3310:3332   */\n      add\n        /* \"#utility.yul\":3297:3333   */\n      swap1\n      sstore\n      pop\n        /* \"#utility.yul\":2301:3600   */\n      jump\t// out\n        /* \"#utility.yul\":3605:4023   */\n    tag_12:\n        /* \"#utility.yul\":3754:3756   */\n      0x20\n        /* \"#utility.yul\":3743:3752   */\n      dup2\n        /* \"#utility.yul\":3736:3757   */\n      mstore\n        /* \"#utility.yul\":3717:3721   */\n      0x00\n        /* \"#utility.yul\":3786:3792   */\n      dup3\n        /* \"#utility.yul\":3780:3793   */\n      mload\n        /* \"#utility.yul\":3829:3835   */\n      dup1\n        /* \"#utility.yul\":3824:3826   */\n      0x20\n        /* \"#utility.yul\":3813:3822   */\n      dup5\n        /* \"#utility.yul\":3809:3827   */\n      add\n        /* \"#utility.yul\":3802:3836   */\n      mstore\n        /* \"#utility.yul\":3888:3894   */\n      dup1\n        /* \"#utility.yul\":3883:3885   */\n      0x20\n        /* \"#utility.yul\":3875:3881   */\n      dup6\n        /* \"#utility.yul\":3871:3886   */\n      add\n        /* \"#utility.yul\":3866:3868   */\n      0x40\n        /* \"#utility.yul\":3855:3864   */\n      dup6\n        /* \"#utility.yul\":3851:3869   */\n      add\n        /* \"#utility.yul\":3845:3895   */\n      mcopy\n        /* \"#utility.yul\":3944:3945   */\n      0x00\n        /* \"#utility.yul\":3939:3941   */\n      0x40\n        /* \"#utility.yul\":3930:3936   */\n      dup3\n        /* \"#utility.yul\":3919:3928   */\n      dup6\n        /* \"#utility.yul\":3915:3937   */\n      add\n        /* \"#utility.yul\":3911:3942   */\n      add\n        /* \"#utility.yul\":3904:3946   */\n      mstore\n        /* \"#utility.yul\":4014:4016   */\n      0x40\n        /* \"#utility.yul\":4007:4009   */\n      0x1f\n        /* \"#utility.yul\":4003:4010   */\n      not\n        /* \"#utility.yul\":3998:4000   */\n      0x1f\n        /* \"#utility.yul\":3990:3996   */\n      dup4\n        /* \"#utility.yul\":3986:4001   */\n      add\n        /* \"#utility.yul\":3982:4011   */\n      and\n        /* \"#utility.yul\":3971:3980   */\n      dup5\n        /* \"#utility.yul\":3967:4012   */\n      add\n        /* \"#utility.yul\":3963:4017   */\n      add\n        /* \"#utility.yul\":3955:4017   */\n      swap2\n      pop\n      pop\n        /* \"#utility.yul\":3605:4023   */\n      swap3\n      swap2\n      pop\n      pop\n      jump\t// out\n\n    auxdata: 0xa264697066735822122037577a4431b15bac69b3dd2c323b582f48c4a1cd0d06b85f702f5d62c7f8667664736f6c634300081a0033\n}\n",
				"bytecode": {
					"linkReferences": {},
					"object": "6080604052348015600e575f80fd5b506102f98061001c5f395ff3fe608060405234801561000f575f80fd5b5060043610610029575f3560e01c8063c47f00271461002d575b5f80fd5b61004061003b36600461009c565b610042565b005b5f61004d82826101d3565b507fc5c0a70706c07d9912c17baf1e039b33e6fc2a55c952eb6bb44c285a104675018160405161007d919061028e565b60405180910390a150565b634e487b7160e01b5f52604160045260245ffd5b5f602082840312156100ac575f80fd5b813567ffffffffffffffff8111156100c2575f80fd5b8201601f810184136100d2575f80fd5b803567ffffffffffffffff8111156100ec576100ec610088565b604051601f8201601f19908116603f0116810167ffffffffffffffff8111828210171561011b5761011b610088565b604052818152828201602001861015610132575f80fd5b816020840160208301375f91810160200191909152949350505050565b600181811c9082168061016357607f821691505b60208210810361018157634e487b7160e01b5f52602260045260245ffd5b50919050565b601f8211156101ce57805f5260205f20601f840160051c810160208510156101ac5750805b601f840160051c820191505b818110156101cb575f81556001016101b8565b50505b505050565b815167ffffffffffffffff8111156101ed576101ed610088565b610201816101fb845461014f565b84610187565b6020601f821160018114610233575f831561021c5750848201515b5f19600385901b1c1916600184901b1784556101cb565b5f84815260208120601f198516915b828110156102625787850151825560209485019460019092019101610242565b508482101561027f57868401515f19600387901b60f8161c191681555b50505050600190811b01905550565b602081525f82518060208401528060208501604085015e5f604082850101526040601f19601f8301168401019150509291505056fea264697066735822122037577a4431b15bac69b3dd2c323b582f48c4a1cd0d06b85f702f5d62c7f8667664736f6c634300081a0033",
					"opcodes": "PUSH1 0x80 PUSH1 0x40 MSTORE CALLVALUE DUP1 ISZERO PUSH1 0xE JUMPI PUSH0 DUP1 REVERT JUMPDEST POP PUSH2 0x2F9 DUP1 PUSH2 0x1C PUSH0 CODECOPY PUSH0 RETURN INVALID PUSH1 0x80 PUSH1 0x40 MSTORE CALLVALUE DUP1 ISZERO PUSH2 0xF JUMPI PUSH0 DUP1 REVERT JUMPDEST POP PUSH1 0x4 CALLDATASIZE LT PUSH2 0x29 JUMPI PUSH0 CALLDATALOAD PUSH1 0xE0 SHR DUP1 PUSH4 0xC47F0027 EQ PUSH2 0x2D JUMPI JUMPDEST PUSH0 DUP1 REVERT JUMPDEST PUSH2 0x40 PUSH2 0x3B CALLDATASIZE PUSH1 0x4 PUSH2 0x9C JUMP JUMPDEST PUSH2 0x42 JUMP JUMPDEST STOP JUMPDEST PUSH0 PUSH2 0x4D DUP3 DUP3 PUSH2 0x1D3 JUMP JUMPDEST POP PUSH32 0xC5C0A70706C07D9912C17BAF1E039B33E6FC2A55C952EB6BB44C285A10467501 DUP2 PUSH1 0x40 MLOAD PUSH2 0x7D SWAP2 SWAP1 PUSH2 0x28E JUMP JUMPDEST PUSH1 0x40 MLOAD DUP1 SWAP2 SUB SWAP1 LOG1 POP JUMP JUMPDEST PUSH4 0x4E487B71 PUSH1 0xE0 SHL PUSH0 MSTORE PUSH1 0x41 PUSH1 0x4 MSTORE PUSH1 0x24 PUSH0 REVERT JUMPDEST PUSH0 PUSH1 0x20 DUP3 DUP5 SUB SLT ISZERO PUSH2 0xAC JUMPI PUSH0 DUP1 REVERT JUMPDEST DUP2 CALLDATALOAD PUSH8 0xFFFFFFFFFFFFFFFF DUP2 GT ISZERO PUSH2 0xC2 JUMPI PUSH0 DUP1 REVERT JUMPDEST DUP3 ADD PUSH1 0x1F DUP2 ADD DUP5 SGT PUSH2 0xD2 JUMPI PUSH0 DUP1 REVERT JUMPDEST DUP1 CALLDATALOAD PUSH8 0xFFFFFFFFFFFFFFFF DUP2 GT ISZERO PUSH2 0xEC JUMPI PUSH2 0xEC PUSH2 0x88 JUMP JUMPDEST PUSH1 0x40 MLOAD PUSH1 0x1F DUP3 ADD PUSH1 0x1F NOT SWAP1 DUP2 AND PUSH1 0x3F ADD AND DUP2 ADD PUSH8 0xFFFFFFFFFFFFFFFF DUP2 GT DUP3 DUP3 LT OR ISZERO PUSH2 0x11B JUMPI PUSH2 0x11B PUSH2 0x88 JUMP JUMPDEST PUSH1 0x40 MSTORE DUP2 DUP2 MSTORE DUP3 DUP3 ADD PUSH1 0x20 ADD DUP7 LT ISZERO PUSH2 0x132 JUMPI PUSH0 DUP1 REVERT JUMPDEST DUP2 PUSH1 0x20 DUP5 ADD PUSH1 0x20 DUP4 ADD CALLDATACOPY PUSH0 SWAP2 DUP2 ADD PUSH1 0x20 ADD SWAP2 SWAP1 SWAP2 MSTORE SWAP5 SWAP4 POP POP POP POP JUMP JUMPDEST PUSH1 0x1 DUP2 DUP2 SHR SWAP1 DUP3 AND DUP1 PUSH2 0x163 JUMPI PUSH1 0x7F DUP3 AND SWAP2 POP JUMPDEST PUSH1 0x20 DUP3 LT DUP2 SUB PUSH2 0x181 JUMPI PUSH4 0x4E487B71 PUSH1 0xE0 SHL PUSH0 MSTORE PUSH1 0x22 PUSH1 0x4 MSTORE PUSH1 0x24 PUSH0 REVERT JUMPDEST POP SWAP2 SWAP1 POP JUMP JUMPDEST PUSH1 0x1F DUP3 GT ISZERO PUSH2 0x1CE JUMPI DUP1 PUSH0 MSTORE PUSH1 0x20 PUSH0 KECCAK256 PUSH1 0x1F DUP5 ADD PUSH1 0x5 SHR DUP2 ADD PUSH1 0x20 DUP6 LT ISZERO PUSH2 0x1AC JUMPI POP DUP1 JUMPDEST PUSH1 0x1F DUP5 ADD PUSH1 0x5 SHR DUP3 ADD SWAP2 POP JUMPDEST DUP2 DUP2 LT ISZERO PUSH2 0x1CB JUMPI PUSH0 DUP2 SSTORE PUSH1 0x1 ADD PUSH2 0x1B8 JUMP JUMPDEST POP POP JUMPDEST POP POP POP JUMP JUMPDEST DUP2 MLOAD PUSH8 0xFFFFFFFFFFFFFFFF DUP2 GT ISZERO PUSH2 0x1ED JUMPI PUSH2 0x1ED PUSH2 0x88 JUMP JUMPDEST PUSH2 0x201 DUP2 PUSH2 0x1FB DUP5 SLOAD PUSH2 0x14F JUMP JUMPDEST DUP5 PUSH2 0x187 JUMP JUMPDEST PUSH1 0x20 PUSH1 0x1F DUP3 GT PUSH1 0x1 DUP2 EQ PUSH2 0x233 JUMPI PUSH0 DUP4 ISZERO PUSH2 0x21C JUMPI POP DUP5 DUP3 ADD MLOAD JUMPDEST PUSH0 NOT PUSH1 0x3 DUP6 SWAP1 SHL SHR NOT AND PUSH1 0x1 DUP5 SWAP1 SHL OR DUP5 SSTORE PUSH2 0x1CB JUMP JUMPDEST PUSH0 DUP5 DUP2 MSTORE PUSH1 0x20 DUP2 KECCAK256 PUSH1 0x1F NOT DUP6 AND SWAP2 JUMPDEST DUP3 DUP2 LT ISZERO PUSH2 0x262 JUMPI DUP8 DUP6 ADD MLOAD DUP3 SSTORE PUSH1 0x20 SWAP5 DUP6 ADD SWAP5 PUSH1 0x1 SWAP1 SWAP3 ADD SWAP2 ADD PUSH2 0x242 JUMP JUMPDEST POP DUP5 DUP3 LT ISZERO PUSH2 0x27F JUMPI DUP7 DUP5 ADD MLOAD PUSH0 NOT PUSH1 0x3 DUP8 SWAP1 SHL PUSH1 0xF8 AND SHR NOT AND DUP2 SSTORE JUMPDEST POP POP POP POP PUSH1 0x1 SWAP1 DUP2 SHL ADD SWAP1 SSTORE POP JUMP JUMPDEST PUSH1 0x20 DUP2 MSTORE PUSH0 DUP3 MLOAD DUP1 PUSH1 0x20 DUP5 ADD MSTORE DUP1 PUSH1 0x20 DUP6 ADD PUSH1 0x40 DUP6 ADD MCOPY PUSH0 PUSH1 0x40 DUP3 DUP6 ADD ADD MSTORE PUSH1 0x40 PUSH1 0x1F NOT PUSH1 0x1F DUP4 ADD AND DUP5 ADD ADD SWAP2 POP POP SWAP3 SWAP2 POP POP JUMP INVALID LOG2 PUSH5 0x6970667358 0x22 SLT KECCAK256 CALLDATACOPY JUMPI PUSH27 0x4431B15BAC69B3DD2C323B582F48C4A1CD0D06B85F702F5D62C7F8 PUSH7 0x7664736F6C6343 STOP ADDMOD BYTE STOP CALLER "
				},
				"gasEstimates": {
					"creation": {
						"codeDepositCost": "152200",
						"executionCost": "194",
						"totalCost": "152394"
					},
					"external": {
						"setName(string)": "infinite"
					}
				},
				"methodIdentifiers": {
					"setName(string)": "c47f0027"
				}
			},
			"storageLayout": {
				"storage": [
					{
						"astId": 3,
						"contract": "contracts/day_1/9.Events.sol:Events",
						"label": "name",
						"offset": 0,
						"slot": "0",
						"type": "t_string_storage"
					}
				],
				"types": {
					"t_string_storage": {
						"encoding": "bytes",
						"label": "string",
						"numberOfBytes": "32"
					}
				}
			},
			"userdoc": {
				"kind": "user",
				"methods": {},
				"version": 1
			}
		}
	}
}