{
	"contracts/day_1/6.Visibility.sol": {
		"Visibility": {
			"abi": [
				{
					"inputs": [],
					"name": "externalFunction",
					"outputs": [
						{
							"internalType": "string",
							"name": "",
							"type": "string"
						}
					],
					"stateMutability": "pure",
					"type": "function"
				},
				{
					"inputs": [],
					"name": "getAge",
					"outputs": [
						{
							"internalType": "uint256",
							"name": "",
							"type": "uint256"
						}
					],
					"stateMutability": "view",
					"type": "function"
				},
				{
					"inputs": [],
					"name": "getName",
					"outputs": [
						{
							"internalType": "string",
							"name": "",
							"type": "string"
						}
					],
					"stateMutability": "view",
					"type": "function"
				},
				{
					"inputs": [],
					"name": "id",
					"outputs": [
						{
							"internalType": "string",
							"name": "",
							"type": "string"
						}
					],
					"stateMutability": "view",
					"type": "function"
				},
				{
					"inputs": [
						{
							"internalType": "string",
							"name": "_name",
							"type": "string"
						}
					],
					"name": "setName",
					"outputs": [],
					"stateMutability": "nonpayable",
					"type": "function"
				}
			],
			"devdoc": {
				"kind": "dev",
				"methods": {},
				"version": 1
			},
			"evm": {
				"assembly": "    /* \"contracts/day_1/6.Visibility.sol\":790:792  31 */\n  0x1f\n    /* \"contracts/day_1/6.Visibility.sol\":767:792  uint256 internal age = 31 */\n  0x01\n  sstore\n    /* \"contracts/day_1/6.Visibility.sol\":799:823  string public id = \"123\" */\n  0xc0\n    /* \"contracts/day_1/6.Visibility.sol\":65:1358  contract Visibility{... */\n  0x40\n    /* \"contracts/day_1/6.Visibility.sol\":799:823  string public id = \"123\" */\n  mstore\n  0x03\n    /* \"contracts/day_1/6.Visibility.sol\":65:1358  contract Visibility{... */\n  0x80\n    /* \"contracts/day_1/6.Visibility.sol\":799:823  string public id = \"123\" */\n  swap1\n  dup2\n  mstore\n  mstore(0xa0, shl(0xe8, 0x313233))\n  0x02\n  swap1\n  tag_1\n  swap1\n  dup3\n  tag_2\n  jump\t// in\ntag_1:\n  pop\n    /* \"contracts/day_1/6.Visibility.sol\":65:1358  contract Visibility{... */\n  callvalue\n  dup1\n  iszero\n  tag_3\n  jumpi\n  0x00\n  dup1\n  revert\ntag_3:\n  pop\n  jump(tag_10)\n    /* \"#utility.yul\":14:141   */\ntag_5:\n    /* \"#utility.yul\":75:85   */\n  0x4e487b71\n    /* \"#utility.yul\":70:73   */\n  0xe0\n    /* \"#utility.yul\":66:86   */\n  shl\n    /* \"#utility.yul\":63:64   */\n  0x00\n    /* \"#utility.yul\":56:87   */\n  mstore\n    /* \"#utility.yul\":106:110   */\n  0x41\n    /* \"#utility.yul\":103:104   */\n  0x04\n    /* \"#utility.yul\":96:111   */\n  mstore\n    /* \"#utility.yul\":130:134   */\n  0x24\n    /* \"#utility.yul\":127:128   */\n  0x00\n    /* \"#utility.yul\":120:135   */\n  revert\n    /* \"#utility.yul\":146:526   */\ntag_6:\n    /* \"#utility.yul\":225:226   */\n  0x01\n    /* \"#utility.yul\":221:233   */\n  dup2\n  dup2\n  shr\n  swap1\n    /* \"#utility.yul\":268:280   */\n  dup3\n  and\n  dup1\n    /* \"#utility.yul\":289:350   */\n  tag_13\n  jumpi\n    /* \"#utility.yul\":343:347   */\n  0x7f\n    /* \"#utility.yul\":335:341   */\n  dup3\n    /* \"#utility.yul\":331:348   */\n  and\n    /* \"#utility.yul\":321:348   */\n  swap2\n  pop\n    /* \"#utility.yul\":289:350   */\ntag_13:\n    /* \"#utility.yul\":396:398   */\n  0x20\n    /* \"#utility.yul\":388:394   */\n  dup3\n    /* \"#utility.yul\":385:399   */\n  lt\n    /* \"#utility.yul\":365:383   */\n  dup2\n    /* \"#utility.yul\":362:400   */\n  sub\n    /* \"#utility.yul\":359:520   */\n  tag_14\n  jumpi\n    /* \"#utility.yul\":442:452   */\n  0x4e487b71\n    /* \"#utility.yul\":437:440   */\n  0xe0\n    /* \"#utility.yul\":433:453   */\n  shl\n    /* \"#utility.yul\":430:431   */\n  0x00\n    /* \"#utility.yul\":423:454   */\n  mstore\n    /* \"#utility.yul\":477:481   */\n  0x22\n    /* \"#utility.yul\":474:475   */\n  0x04\n    /* \"#utility.yul\":467:482   */\n  mstore\n    /* \"#utility.yul\":505:509   */\n  0x24\n    /* \"#utility.yul\":502:503   */\n  0x00\n    /* \"#utility.yul\":495:510   */\n  revert\n    /* \"#utility.yul\":359:520   */\ntag_14:\n  pop\n    /* \"#utility.yul\":146:526   */\n  swap2\n  swap1\n  pop\n  jump\t// out\n    /* \"#utility.yul\":657:1175   */\ntag_8:\n    /* \"#utility.yul\":759:761   */\n  0x1f\n    /* \"#utility.yul\":754:757   */\n  dup3\n    /* \"#utility.yul\":751:762   */\n  gt\n    /* \"#utility.yul\":748:1169   */\n  iszero\n  tag_17\n  jumpi\n    /* \"#utility.yul\":795:800   */\n  dup1\n    /* \"#utility.yul\":792:793   */\n  0x00\n    /* \"#utility.yul\":785:801   */\n  mstore\n    /* \"#utility.yul\":839:843   */\n  0x20\n    /* \"#utility.yul\":836:837   */\n  0x00\n    /* \"#utility.yul\":826:844   */\n  keccak256\n    /* \"#utility.yul\":909:911   */\n  0x1f\n    /* \"#utility.yul\":897:907   */\n  dup5\n    /* \"#utility.yul\":893:912   */\n  add\n    /* \"#utility.yul\":890:891   */\n  0x05\n    /* \"#utility.yul\":886:913   */\n  shr\n    /* \"#utility.yul\":880:884   */\n  dup2\n    /* \"#utility.yul\":876:914   */\n  add\n    /* \"#utility.yul\":945:949   */\n  0x20\n    /* \"#utility.yul\":933:943   */\n  dup6\n    /* \"#utility.yul\":930:950   */\n  lt\n    /* \"#utility.yul\":927:974   */\n  iszero\n  tag_18\n  jumpi\n  pop\n    /* \"#utility.yul\":968:972   */\n  dup1\n    /* \"#utility.yul\":927:974   */\ntag_18:\n    /* \"#utility.yul\":1023:1025   */\n  0x1f\n    /* \"#utility.yul\":1018:1021   */\n  dup5\n    /* \"#utility.yul\":1014:1026   */\n  add\n    /* \"#utility.yul\":1011:1012   */\n  0x05\n    /* \"#utility.yul\":1007:1027   */\n  shr\n    /* \"#utility.yul\":1001:1005   */\n  dup3\n    /* \"#utility.yul\":997:1028   */\n  add\n    /* \"#utility.yul\":987:1028   */\n  swap2\n  pop\n    /* \"#utility.yul\":1078:1159   */\ntag_19:\n    /* \"#utility.yul\":1096:1098   */\n  dup2\n    /* \"#utility.yul\":1089:1094   */\n  dup2\n    /* \"#utility.yul\":1086:1099   */\n  lt\n    /* \"#utility.yul\":1078:1159   */\n  iszero\n  tag_21\n  jumpi\n    /* \"#utility.yul\":1155:1156   */\n  0x00\n    /* \"#utility.yul\":1141:1157   */\n  dup2\n  sstore\n    /* \"#utility.yul\":1122:1123   */\n  0x01\n    /* \"#utility.yul\":1111:1124   */\n  add\n    /* \"#utility.yul\":1078:1159   */\n  jump(tag_19)\ntag_21:\n    /* \"#utility.yul\":1082:1085   */\n  pop\n  pop\n    /* \"#utility.yul\":748:1169   */\ntag_17:\n    /* \"#utility.yul\":657:1175   */\n  pop\n  pop\n  pop\n  jump\t// out\n    /* \"#utility.yul\":1351:2650   */\ntag_2:\n    /* \"#utility.yul\":1471:1481   */\n  dup2\n  mload\n  sub(shl(0x40, 0x01), 0x01)\n    /* \"#utility.yul\":1493:1523   */\n  dup2\n  gt\n    /* \"#utility.yul\":1490:1546   */\n  iszero\n  tag_25\n  jumpi\n    /* \"#utility.yul\":1526:1544   */\n  tag_25\n  tag_5\n  jump\t// in\ntag_25:\n    /* \"#utility.yul\":1555:1652   */\n  tag_26\n    /* \"#utility.yul\":1645:1651   */\n  dup2\n    /* \"#utility.yul\":1605:1643   */\n  tag_27\n    /* \"#utility.yul\":1637:1641   */\n  dup5\n    /* \"#utility.yul\":1631:1642   */\n  sload\n    /* \"#utility.yul\":1605:1643   */\n  tag_6\n  jump\t// in\ntag_27:\n    /* \"#utility.yul\":1599:1603   */\n  dup5\n    /* \"#utility.yul\":1555:1652   */\n  tag_8\n  jump\t// in\ntag_26:\n    /* \"#utility.yul\":1701:1705   */\n  0x20\n    /* \"#utility.yul\":1732:1734   */\n  0x1f\n    /* \"#utility.yul\":1721:1735   */\n  dup3\n  gt\n    /* \"#utility.yul\":1749:1750   */\n  0x01\n    /* \"#utility.yul\":1744:2393   */\n  dup2\n  eq\n  tag_29\n  jumpi\n    /* \"#utility.yul\":2437:2438   */\n  0x00\n    /* \"#utility.yul\":2454:2460   */\n  dup4\n    /* \"#utility.yul\":2451:2540   */\n  iszero\n  tag_30\n  jumpi\n  pop\n    /* \"#utility.yul\":2506:2525   */\n  dup5\n  dup3\n  add\n    /* \"#utility.yul\":2500:2526   */\n  mload\n    /* \"#utility.yul\":2451:2540   */\ntag_30:\n  not(0x00)\n    /* \"#utility.yul\":1308:1309   */\n  0x03\n    /* \"#utility.yul\":1304:1315   */\n  dup6\n  swap1\n  shl\n    /* \"#utility.yul\":1300:1324   */\n  shr\n    /* \"#utility.yul\":1296:1325   */\n  not\n    /* \"#utility.yul\":1286:1326   */\n  and\n    /* \"#utility.yul\":1332:1333   */\n  0x01\n    /* \"#utility.yul\":1328:1339   */\n  dup5\n  swap1\n  shl\n    /* \"#utility.yul\":1283:1340   */\n  or\n    /* \"#utility.yul\":2553:2634   */\n  dup5\n  sstore\n    /* \"#utility.yul\":1714:2644   */\n  jump(tag_21)\n    /* \"#utility.yul\":1744:2393   */\ntag_29:\n    /* \"#utility.yul\":604:605   */\n  0x00\n    /* \"#utility.yul\":597:611   */\n  dup5\n  dup2\n  mstore\n    /* \"#utility.yul\":641:645   */\n  0x20\n    /* \"#utility.yul\":628:646   */\n  dup2\n  keccak256\n  not(0x1f)\n    /* \"#utility.yul\":1780:1800   */\n  dup6\n  and\n  swap2\n    /* \"#utility.yul\":1898:2120   */\ntag_33:\n    /* \"#utility.yul\":1912:1919   */\n  dup3\n    /* \"#utility.yul\":1909:1910   */\n  dup2\n    /* \"#utility.yul\":1906:1920   */\n  lt\n    /* \"#utility.yul\":1898:2120   */\n  iszero\n  tag_35\n  jumpi\n    /* \"#utility.yul\":1994:2013   */\n  dup8\n  dup6\n  add\n    /* \"#utility.yul\":1988:2014   */\n  mload\n    /* \"#utility.yul\":1973:2015   */\n  dup3\n  sstore\n    /* \"#utility.yul\":2101:2105   */\n  0x20\n    /* \"#utility.yul\":2086:2106   */\n  swap5\n  dup6\n  add\n  swap5\n    /* \"#utility.yul\":2054:2055   */\n  0x01\n    /* \"#utility.yul\":2042:2056   */\n  swap1\n  swap3\n  add\n  swap2\n    /* \"#utility.yul\":1928:1940   */\n  add\n    /* \"#utility.yul\":1898:2120   */\n  jump(tag_33)\ntag_35:\n    /* \"#utility.yul\":1902:1905   */\n  pop\n    /* \"#utility.yul\":2148:2154   */\n  dup5\n    /* \"#utility.yul\":2139:2146   */\n  dup3\n    /* \"#utility.yul\":2136:2155   */\n  lt\n    /* \"#utility.yul\":2133:2334   */\n  iszero\n  tag_36\n  jumpi\n    /* \"#utility.yul\":2209:2228   */\n  dup7\n  dup5\n  add\n    /* \"#utility.yul\":2203:2229   */\n  mload\n  not(0x00)\n    /* \"#utility.yul\":2292:2293   */\n  0x03\n    /* \"#utility.yul\":2288:2302   */\n  dup8\n  swap1\n  shl\n    /* \"#utility.yul\":2304:2307   */\n  0xf8\n    /* \"#utility.yul\":2284:2308   */\n  and\n    /* \"#utility.yul\":2280:2317   */\n  shr\n    /* \"#utility.yul\":2276:2318   */\n  not\n    /* \"#utility.yul\":2261:2319   */\n  and\n    /* \"#utility.yul\":2246:2320   */\n  dup2\n  sstore\n    /* \"#utility.yul\":2133:2334   */\ntag_36:\n  pop\n  pop\n  pop\n  pop\n    /* \"#utility.yul\":2380:2381   */\n  0x01\n    /* \"#utility.yul\":2364:2378   */\n  swap1\n  dup2\n  shl\n    /* \"#utility.yul\":2360:2382   */\n  add\n    /* \"#utility.yul\":2347:2383   */\n  swap1\n  sstore\n  pop\n    /* \"#utility.yul\":1351:2650   */\n  jump\t// out\ntag_10:\n    /* \"contracts/day_1/6.Visibility.sol\":65:1358  contract Visibility{... */\n  dataSize(sub_0)\n  dup1\n  dataOffset(sub_0)\n  0x00\n  codecopy\n  0x00\n  return\nstop\n\nsub_0: assembly {\n        /* \"contracts/day_1/6.Visibility.sol\":65:1358  contract Visibility{... */\n      mstore(0x40, 0x80)\n      callvalue\n      dup1\n      iszero\n      tag_1\n      jumpi\n      0x00\n      dup1\n      revert\n    tag_1:\n      pop\n      jumpi(tag_2, lt(calldatasize, 0x04))\n      shr(0xe0, calldataload(0x00))\n      dup1\n      0x17d7de7c\n      eq\n      tag_3\n      jumpi\n      dup1\n      0x3a32b549\n      eq\n      tag_4\n      jumpi\n      dup1\n      0x967e6e65\n      eq\n      tag_5\n      jumpi\n      dup1\n      0xaf640d0f\n      eq\n      tag_6\n      jumpi\n      dup1\n      0xc47f0027\n      eq\n      tag_7\n      jumpi\n    tag_2:\n      0x00\n      dup1\n      revert\n        /* \"contracts/day_1/6.Visibility.sol\":963:1046  function getName() public view returns(string memory){... */\n    tag_3:\n      tag_8\n      tag_9\n      jump\t// in\n    tag_8:\n      mload(0x40)\n      tag_10\n      swap2\n      swap1\n      tag_11\n      jump\t// in\n    tag_10:\n      mload(0x40)\n      dup1\n      swap2\n      sub\n      swap1\n      return\n        /* \"contracts/day_1/6.Visibility.sol\":1244:1353  function externalFunction() external pure returns(string memory){... */\n    tag_4:\n        /* \"contracts/day_1/6.Visibility.sol\":1319:1345  return \"External Function\" */\n      0x40\n      dup1\n      mload\n      dup1\n      dup3\n      add\n      swap1\n      swap2\n      mstore\n      0x11\n      dup2\n      mstore\n      shl(0x79, 0x22bc3a32b93730b610233ab731ba34b7b7)\n      0x20\n      dup3\n      add\n      mstore\n        /* \"contracts/day_1/6.Visibility.sol\":1244:1353  function externalFunction() external pure returns(string memory){... */\n      jump(tag_8)\n        /* \"contracts/day_1/6.Visibility.sol\":1054:1143  function getAge() public view returns(uint256){... */\n    tag_5:\n      tag_15\n      tag_16\n      jump\t// in\n    tag_15:\n      mload(0x40)\n        /* \"#utility.yul\":583:608   */\n      swap1\n      dup2\n      mstore\n        /* \"#utility.yul\":571:573   */\n      0x20\n        /* \"#utility.yul\":556:574   */\n      add\n        /* \"contracts/day_1/6.Visibility.sol\":1054:1143  function getAge() public view returns(uint256){... */\n      tag_10\n        /* \"#utility.yul\":437:614   */\n      jump\n        /* \"contracts/day_1/6.Visibility.sol\":799:823  string public id = \"123\" */\n    tag_6:\n      tag_8\n      tag_20\n      jump\t// in\n        /* \"contracts/day_1/6.Visibility.sol\":856:932  function setName(string memory _name) public {... */\n    tag_7:\n      tag_22\n      tag_23\n      calldatasize\n      0x04\n      tag_24\n      jump\t// in\n    tag_23:\n      tag_25\n      jump\t// in\n    tag_22:\n      stop\n        /* \"contracts/day_1/6.Visibility.sol\":963:1046  function getName() public view returns(string memory){... */\n    tag_9:\n        /* \"contracts/day_1/6.Visibility.sol\":1002:1015  string memory */\n      0x60\n        /* \"contracts/day_1/6.Visibility.sol\":1034:1038  name */\n      0x00\n        /* \"contracts/day_1/6.Visibility.sol\":1027:1038  return name */\n      dup1\n      sload\n      tag_27\n      swap1\n      tag_28\n      jump\t// in\n    tag_27:\n      dup1\n      0x1f\n      add\n      0x20\n      dup1\n      swap2\n      div\n      mul\n      0x20\n      add\n      mload(0x40)\n      swap1\n      dup2\n      add\n      0x40\n      mstore\n      dup1\n      swap3\n      swap2\n      swap1\n      dup2\n      dup2\n      mstore\n      0x20\n      add\n      dup3\n      dup1\n      sload\n      tag_29\n      swap1\n      tag_28\n      jump\t// in\n    tag_29:\n      dup1\n      iszero\n      tag_30\n      jumpi\n      dup1\n      0x1f\n      lt\n      tag_31\n      jumpi\n      0x0100\n      dup1\n      dup4\n      sload\n      div\n      mul\n      dup4\n      mstore\n      swap2\n      0x20\n      add\n      swap2\n      jump(tag_30)\n    tag_31:\n      dup3\n      add\n      swap2\n      swap1\n      0x00\n      mstore\n      keccak256(0x00, 0x20)\n      swap1\n    tag_32:\n      dup2\n      sload\n      dup2\n      mstore\n      swap1\n      0x01\n      add\n      swap1\n      0x20\n      add\n      dup1\n      dup4\n      gt\n      tag_32\n      jumpi\n      dup3\n      swap1\n      sub\n      0x1f\n      and\n      dup3\n      add\n      swap2\n    tag_30:\n      pop\n      pop\n      pop\n      pop\n      pop\n      swap1\n      pop\n        /* \"contracts/day_1/6.Visibility.sol\":963:1046  function getName() public view returns(string memory){... */\n      swap1\n      jump\t// out\n        /* \"contracts/day_1/6.Visibility.sol\":1054:1143  function getAge() public view returns(uint256){... */\n    tag_16:\n        /* \"contracts/day_1/6.Visibility.sol\":1092:1099  uint256 */\n      0x00\n        /* \"contracts/day_1/6.Visibility.sol\":1118:1135  privateFunction() */\n      tag_35\n        /* \"contracts/day_1/6.Visibility.sol\":1225:1228  age */\n      sload(0x01)\n      swap1\n        /* \"contracts/day_1/6.Visibility.sol\":1151:1236  function privateFunction() private view returns(uint256){... */\n      jump\n        /* \"contracts/day_1/6.Visibility.sol\":1118:1135  privateFunction() */\n    tag_35:\n        /* \"contracts/day_1/6.Visibility.sol\":1111:1135  return privateFunction() */\n      swap1\n      pop\n        /* \"contracts/day_1/6.Visibility.sol\":1054:1143  function getAge() public view returns(uint256){... */\n      swap1\n      jump\t// out\n        /* \"contracts/day_1/6.Visibility.sol\":799:823  string public id = \"123\" */\n    tag_20:\n      0x02\n      dup1\n      sload\n      tag_37\n      swap1\n      tag_28\n      jump\t// in\n    tag_37:\n      dup1\n      0x1f\n      add\n      0x20\n      dup1\n      swap2\n      div\n      mul\n      0x20\n      add\n      mload(0x40)\n      swap1\n      dup2\n      add\n      0x40\n      mstore\n      dup1\n      swap3\n      swap2\n      swap1\n      dup2\n      dup2\n      mstore\n      0x20\n      add\n      dup3\n      dup1\n      sload\n      tag_38\n      swap1\n      tag_28\n      jump\t// in\n    tag_38:\n      dup1\n      iszero\n      tag_39\n      jumpi\n      dup1\n      0x1f\n      lt\n      tag_40\n      jumpi\n      0x0100\n      dup1\n      dup4\n      sload\n      div\n      mul\n      dup4\n      mstore\n      swap2\n      0x20\n      add\n      swap2\n      jump(tag_39)\n    tag_40:\n      dup3\n      add\n      swap2\n      swap1\n      0x00\n      mstore\n      keccak256(0x00, 0x20)\n      swap1\n    tag_41:\n      dup2\n      sload\n      dup2\n      mstore\n      swap1\n      0x01\n      add\n      swap1\n      0x20\n      add\n      dup1\n      dup4\n      gt\n      tag_41\n      jumpi\n      dup3\n      swap1\n      sub\n      0x1f\n      and\n      dup3\n      add\n      swap2\n    tag_39:\n      pop\n      pop\n      pop\n      pop\n      pop\n      dup2\n      jump\t// out\n        /* \"contracts/day_1/6.Visibility.sol\":856:932  function setName(string memory _name) public {... */\n    tag_25:\n        /* \"contracts/day_1/6.Visibility.sol\":912:916  name */\n      0x00\n        /* \"contracts/day_1/6.Visibility.sol\":912:924  name = _name */\n      tag_43\n        /* \"contracts/day_1/6.Visibility.sol\":919:924  _name */\n      dup3\n        /* \"contracts/day_1/6.Visibility.sol\":912:916  name */\n      dup3\n        /* \"contracts/day_1/6.Visibility.sol\":912:924  name = _name */\n      tag_44\n      jump\t// in\n    tag_43:\n      pop\n        /* \"contracts/day_1/6.Visibility.sol\":856:932  function setName(string memory _name) public {... */\n      pop\n      jump\t// out\n        /* \"#utility.yul\":14:432   */\n    tag_11:\n        /* \"#utility.yul\":163:165   */\n      0x20\n        /* \"#utility.yul\":152:161   */\n      dup2\n        /* \"#utility.yul\":145:166   */\n      mstore\n        /* \"#utility.yul\":126:130   */\n      0x00\n        /* \"#utility.yul\":195:201   */\n      dup3\n        /* \"#utility.yul\":189:202   */\n      mload\n        /* \"#utility.yul\":238:244   */\n      dup1\n        /* \"#utility.yul\":233:235   */\n      0x20\n        /* \"#utility.yul\":222:231   */\n      dup5\n        /* \"#utility.yul\":218:236   */\n      add\n        /* \"#utility.yul\":211:245   */\n      mstore\n        /* \"#utility.yul\":297:303   */\n      dup1\n        /* \"#utility.yul\":292:294   */\n      0x20\n        /* \"#utility.yul\":284:290   */\n      dup6\n        /* \"#utility.yul\":280:295   */\n      add\n        /* \"#utility.yul\":275:277   */\n      0x40\n        /* \"#utility.yul\":264:273   */\n      dup6\n        /* \"#utility.yul\":260:278   */\n      add\n        /* \"#utility.yul\":254:304   */\n      mcopy\n        /* \"#utility.yul\":353:354   */\n      0x00\n        /* \"#utility.yul\":348:350   */\n      0x40\n        /* \"#utility.yul\":339:345   */\n      dup3\n        /* \"#utility.yul\":328:337   */\n      dup6\n        /* \"#utility.yul\":324:346   */\n      add\n        /* \"#utility.yul\":320:351   */\n      add\n        /* \"#utility.yul\":313:355   */\n      mstore\n        /* \"#utility.yul\":423:425   */\n      0x40\n        /* \"#utility.yul\":416:418   */\n      0x1f\n        /* \"#utility.yul\":412:419   */\n      not\n        /* \"#utility.yul\":407:409   */\n      0x1f\n        /* \"#utility.yul\":399:405   */\n      dup4\n        /* \"#utility.yul\":395:410   */\n      add\n        /* \"#utility.yul\":391:420   */\n      and\n        /* \"#utility.yul\":380:389   */\n      dup5\n        /* \"#utility.yul\":376:421   */\n      add\n        /* \"#utility.yul\":372:426   */\n      add\n        /* \"#utility.yul\":364:426   */\n      swap2\n      pop\n      pop\n        /* \"#utility.yul\":14:432   */\n      swap3\n      swap2\n      pop\n      pop\n      jump\t// out\n        /* \"#utility.yul\":619:746   */\n    tag_46:\n        /* \"#utility.yul\":680:690   */\n      0x4e487b71\n        /* \"#utility.yul\":675:678   */\n      0xe0\n        /* \"#utility.yul\":671:691   */\n      shl\n        /* \"#utility.yul\":668:669   */\n      0x00\n        /* \"#utility.yul\":661:692   */\n      mstore\n        /* \"#utility.yul\":711:715   */\n      0x41\n        /* \"#utility.yul\":708:709   */\n      0x04\n        /* \"#utility.yul\":701:716   */\n      mstore\n        /* \"#utility.yul\":735:739   */\n      0x24\n        /* \"#utility.yul\":732:733   */\n      0x00\n        /* \"#utility.yul\":725:740   */\n      revert\n        /* \"#utility.yul\":751:1696   */\n    tag_24:\n        /* \"#utility.yul\":820:826   */\n      0x00\n        /* \"#utility.yul\":873:875   */\n      0x20\n        /* \"#utility.yul\":861:870   */\n      dup3\n        /* \"#utility.yul\":852:859   */\n      dup5\n        /* \"#utility.yul\":848:871   */\n      sub\n        /* \"#utility.yul\":844:876   */\n      slt\n        /* \"#utility.yul\":841:893   */\n      iszero\n      tag_55\n      jumpi\n        /* \"#utility.yul\":889:890   */\n      0x00\n        /* \"#utility.yul\":886:887   */\n      dup1\n        /* \"#utility.yul\":879:891   */\n      revert\n        /* \"#utility.yul\":841:893   */\n    tag_55:\n        /* \"#utility.yul\":929:938   */\n      dup2\n        /* \"#utility.yul\":916:939   */\n      calldataload\n        /* \"#utility.yul\":962:980   */\n      0xffffffffffffffff\n        /* \"#utility.yul\":954:960   */\n      dup2\n        /* \"#utility.yul\":951:981   */\n      gt\n        /* \"#utility.yul\":948:998   */\n      iszero\n      tag_56\n      jumpi\n        /* \"#utility.yul\":994:995   */\n      0x00\n        /* \"#utility.yul\":991:992   */\n      dup1\n        /* \"#utility.yul\":984:996   */\n      revert\n        /* \"#utility.yul\":948:998   */\n    tag_56:\n        /* \"#utility.yul\":1017:1039   */\n      dup3\n      add\n        /* \"#utility.yul\":1070:1074   */\n      0x1f\n        /* \"#utility.yul\":1062:1075   */\n      dup2\n      add\n        /* \"#utility.yul\":1058:1085   */\n      dup5\n      sgt\n        /* \"#utility.yul\":1048:1103   */\n      tag_57\n      jumpi\n        /* \"#utility.yul\":1099:1100   */\n      0x00\n        /* \"#utility.yul\":1096:1097   */\n      dup1\n        /* \"#utility.yul\":1089:1101   */\n      revert\n        /* \"#utility.yul\":1048:1103   */\n    tag_57:\n        /* \"#utility.yul\":1139:1141   */\n      dup1\n        /* \"#utility.yul\":1126:1142   */\n      calldataload\n        /* \"#utility.yul\":1165:1183   */\n      0xffffffffffffffff\n        /* \"#utility.yul\":1157:1163   */\n      dup2\n        /* \"#utility.yul\":1154:1184   */\n      gt\n        /* \"#utility.yul\":1151:1207   */\n      iszero\n      tag_59\n      jumpi\n        /* \"#utility.yul\":1187:1205   */\n      tag_59\n      tag_46\n      jump\t// in\n    tag_59:\n        /* \"#utility.yul\":1236:1238   */\n      0x40\n        /* \"#utility.yul\":1230:1239   */\n      mload\n        /* \"#utility.yul\":1328:1330   */\n      0x1f\n        /* \"#utility.yul\":1290:1307   */\n      dup3\n      add\n      not(0x1f)\n        /* \"#utility.yul\":1286:1317   */\n      swap1\n      dup2\n      and\n        /* \"#utility.yul\":1319:1321   */\n      0x3f\n        /* \"#utility.yul\":1282:1322   */\n      add\n        /* \"#utility.yul\":1278:1332   */\n      and\n        /* \"#utility.yul\":1266:1333   */\n      dup2\n      add\n        /* \"#utility.yul\":1363:1381   */\n      0xffffffffffffffff\n        /* \"#utility.yul\":1348:1382   */\n      dup2\n      gt\n        /* \"#utility.yul\":1384:1406   */\n      dup3\n      dup3\n      lt\n        /* \"#utility.yul\":1345:1407   */\n      or\n        /* \"#utility.yul\":1342:1430   */\n      iszero\n      tag_61\n      jumpi\n        /* \"#utility.yul\":1410:1428   */\n      tag_61\n      tag_46\n      jump\t// in\n    tag_61:\n        /* \"#utility.yul\":1446:1448   */\n      0x40\n        /* \"#utility.yul\":1439:1461   */\n      mstore\n        /* \"#utility.yul\":1470:1492   */\n      dup2\n      dup2\n      mstore\n        /* \"#utility.yul\":1511:1526   */\n      dup3\n      dup3\n      add\n        /* \"#utility.yul\":1528:1530   */\n      0x20\n        /* \"#utility.yul\":1507:1531   */\n      add\n        /* \"#utility.yul\":1504:1541   */\n      dup7\n      lt\n        /* \"#utility.yul\":1501:1558   */\n      iszero\n      tag_62\n      jumpi\n        /* \"#utility.yul\":1554:1555   */\n      0x00\n        /* \"#utility.yul\":1551:1552   */\n      dup1\n        /* \"#utility.yul\":1544:1556   */\n      revert\n        /* \"#utility.yul\":1501:1558   */\n    tag_62:\n        /* \"#utility.yul\":1610:1616   */\n      dup2\n        /* \"#utility.yul\":1605:1607   */\n      0x20\n        /* \"#utility.yul\":1601:1603   */\n      dup5\n        /* \"#utility.yul\":1597:1608   */\n      add\n        /* \"#utility.yul\":1592:1594   */\n      0x20\n        /* \"#utility.yul\":1584:1590   */\n      dup4\n        /* \"#utility.yul\":1580:1595   */\n      add\n        /* \"#utility.yul\":1567:1617   */\n      calldatacopy\n        /* \"#utility.yul\":1663:1664   */\n      0x00\n        /* \"#utility.yul\":1637:1656   */\n      swap2\n      dup2\n      add\n        /* \"#utility.yul\":1658:1660   */\n      0x20\n        /* \"#utility.yul\":1633:1661   */\n      add\n        /* \"#utility.yul\":1626:1665   */\n      swap2\n      swap1\n      swap2\n      mstore\n        /* \"#utility.yul\":1641:1647   */\n      swap5\n        /* \"#utility.yul\":751:1696   */\n      swap4\n      pop\n      pop\n      pop\n      pop\n      jump\t// out\n        /* \"#utility.yul\":1701:2081   */\n    tag_28:\n        /* \"#utility.yul\":1780:1781   */\n      0x01\n        /* \"#utility.yul\":1776:1788   */\n      dup2\n      dup2\n      shr\n      swap1\n        /* \"#utility.yul\":1823:1835   */\n      dup3\n      and\n      dup1\n        /* \"#utility.yul\":1844:1905   */\n      tag_64\n      jumpi\n        /* \"#utility.yul\":1898:1902   */\n      0x7f\n        /* \"#utility.yul\":1890:1896   */\n      dup3\n        /* \"#utility.yul\":1886:1903   */\n      and\n        /* \"#utility.yul\":1876:1903   */\n      swap2\n      pop\n        /* \"#utility.yul\":1844:1905   */\n    tag_64:\n        /* \"#utility.yul\":1951:1953   */\n      0x20\n        /* \"#utility.yul\":1943:1949   */\n      dup3\n        /* \"#utility.yul\":1940:1954   */\n      lt\n        /* \"#utility.yul\":1920:1938   */\n      dup2\n        /* \"#utility.yul\":1917:1955   */\n      sub\n        /* \"#utility.yul\":1914:2075   */\n      tag_65\n      jumpi\n        /* \"#utility.yul\":1997:2007   */\n      0x4e487b71\n        /* \"#utility.yul\":1992:1995   */\n      0xe0\n        /* \"#utility.yul\":1988:2008   */\n      shl\n        /* \"#utility.yul\":1985:1986   */\n      0x00\n        /* \"#utility.yul\":1978:2009   */\n      mstore\n        /* \"#utility.yul\":2032:2036   */\n      0x22\n        /* \"#utility.yul\":2029:2030   */\n      0x04\n        /* \"#utility.yul\":2022:2037   */\n      mstore\n        /* \"#utility.yul\":2060:2064   */\n      0x24\n        /* \"#utility.yul\":2057:2058   */\n      0x00\n        /* \"#utility.yul\":2050:2065   */\n      revert\n        /* \"#utility.yul\":1914:2075   */\n    tag_65:\n      pop\n        /* \"#utility.yul\":1701:2081   */\n      swap2\n      swap1\n      pop\n      jump\t// out\n        /* \"#utility.yul\":2212:2730   */\n    tag_48:\n        /* \"#utility.yul\":2314:2316   */\n      0x1f\n        /* \"#utility.yul\":2309:2312   */\n      dup3\n        /* \"#utility.yul\":2306:2317   */\n      gt\n        /* \"#utility.yul\":2303:2724   */\n      iszero\n      tag_68\n      jumpi\n        /* \"#utility.yul\":2350:2355   */\n      dup1\n        /* \"#utility.yul\":2347:2348   */\n      0x00\n        /* \"#utility.yul\":2340:2356   */\n      mstore\n        /* \"#utility.yul\":2394:2398   */\n      0x20\n        /* \"#utility.yul\":2391:2392   */\n      0x00\n        /* \"#utility.yul\":2381:2399   */\n      keccak256\n        /* \"#utility.yul\":2464:2466   */\n      0x1f\n        /* \"#utility.yul\":2452:2462   */\n      dup5\n        /* \"#utility.yul\":2448:2467   */\n      add\n        /* \"#utility.yul\":2445:2446   */\n      0x05\n        /* \"#utility.yul\":2441:2468   */\n      shr\n        /* \"#utility.yul\":2435:2439   */\n      dup2\n        /* \"#utility.yul\":2431:2469   */\n      add\n        /* \"#utility.yul\":2500:2504   */\n      0x20\n        /* \"#utility.yul\":2488:2498   */\n      dup6\n        /* \"#utility.yul\":2485:2505   */\n      lt\n        /* \"#utility.yul\":2482:2529   */\n      iszero\n      tag_69\n      jumpi\n      pop\n        /* \"#utility.yul\":2523:2527   */\n      dup1\n        /* \"#utility.yul\":2482:2529   */\n    tag_69:\n        /* \"#utility.yul\":2578:2580   */\n      0x1f\n        /* \"#utility.yul\":2573:2576   */\n      dup5\n        /* \"#utility.yul\":2569:2581   */\n      add\n        /* \"#utility.yul\":2566:2567   */\n      0x05\n        /* \"#utility.yul\":2562:2582   */\n      shr\n        /* \"#utility.yul\":2556:2560   */\n      dup3\n        /* \"#utility.yul\":2552:2583   */\n      add\n        /* \"#utility.yul\":2542:2583   */\n      swap2\n      pop\n        /* \"#utility.yul\":2633:2714   */\n    tag_70:\n        /* \"#utility.yul\":2651:2653   */\n      dup2\n        /* \"#utility.yul\":2644:2649   */\n      dup2\n        /* \"#utility.yul\":2641:2654   */\n      lt\n        /* \"#utility.yul\":2633:2714   */\n      iszero\n      tag_72\n      jumpi\n        /* \"#utility.yul\":2710:2711   */\n      0x00\n        /* \"#utility.yul\":2696:2712   */\n      dup2\n      sstore\n        /* \"#utility.yul\":2677:2678   */\n      0x01\n        /* \"#utility.yul\":2666:2679   */\n      add\n        /* \"#utility.yul\":2633:2714   */\n      jump(tag_70)\n    tag_72:\n        /* \"#utility.yul\":2637:2640   */\n      pop\n      pop\n        /* \"#utility.yul\":2303:2724   */\n    tag_68:\n        /* \"#utility.yul\":2212:2730   */\n      pop\n      pop\n      pop\n      jump\t// out\n        /* \"#utility.yul\":2906:4205   */\n    tag_44:\n        /* \"#utility.yul\":3032:3035   */\n      dup2\n        /* \"#utility.yul\":3026:3036   */\n      mload\n        /* \"#utility.yul\":3059:3077   */\n      0xffffffffffffffff\n        /* \"#utility.yul\":3051:3057   */\n      dup2\n        /* \"#utility.yul\":3048:3078   */\n      gt\n        /* \"#utility.yul\":3045:3101   */\n      iszero\n      tag_76\n      jumpi\n        /* \"#utility.yul\":3081:3099   */\n      tag_76\n      tag_46\n      jump\t// in\n    tag_76:\n        /* \"#utility.yul\":3110:3207   */\n      tag_77\n        /* \"#utility.yul\":3200:3206   */\n      dup2\n        /* \"#utility.yul\":3160:3198   */\n      tag_78\n        /* \"#utility.yul\":3192:3196   */\n      dup5\n        /* \"#utility.yul\":3186:3197   */\n      sload\n        /* \"#utility.yul\":3160:3198   */\n      tag_28\n      jump\t// in\n    tag_78:\n        /* \"#utility.yul\":3154:3158   */\n      dup5\n        /* \"#utility.yul\":3110:3207   */\n      tag_48\n      jump\t// in\n    tag_77:\n        /* \"#utility.yul\":3256:3260   */\n      0x20\n        /* \"#utility.yul\":3287:3289   */\n      0x1f\n        /* \"#utility.yul\":3276:3290   */\n      dup3\n      gt\n        /* \"#utility.yul\":3304:3305   */\n      0x01\n        /* \"#utility.yul\":3299:3948   */\n      dup2\n      eq\n      tag_80\n      jumpi\n        /* \"#utility.yul\":3992:3993   */\n      0x00\n        /* \"#utility.yul\":4009:4015   */\n      dup4\n        /* \"#utility.yul\":4006:4095   */\n      iszero\n      tag_81\n      jumpi\n      pop\n        /* \"#utility.yul\":4061:4080   */\n      dup5\n      dup3\n      add\n        /* \"#utility.yul\":4055:4081   */\n      mload\n        /* \"#utility.yul\":4006:4095   */\n    tag_81:\n      not(0x00)\n        /* \"#utility.yul\":2863:2864   */\n      0x03\n        /* \"#utility.yul\":2859:2870   */\n      dup6\n      swap1\n      shl\n        /* \"#utility.yul\":2855:2879   */\n      shr\n        /* \"#utility.yul\":2851:2880   */\n      not\n        /* \"#utility.yul\":2841:2881   */\n      and\n        /* \"#utility.yul\":2887:2888   */\n      0x01\n        /* \"#utility.yul\":2883:2894   */\n      dup5\n      swap1\n      shl\n        /* \"#utility.yul\":2838:2895   */\n      or\n        /* \"#utility.yul\":4108:4189   */\n      dup5\n      sstore\n        /* \"#utility.yul\":3269:4199   */\n      jump(tag_72)\n        /* \"#utility.yul\":3299:3948   */\n    tag_80:\n        /* \"#utility.yul\":2159:2160   */\n      0x00\n        /* \"#utility.yul\":2152:2166   */\n      dup5\n      dup2\n      mstore\n        /* \"#utility.yul\":2196:2200   */\n      0x20\n        /* \"#utility.yul\":2183:2201   */\n      dup2\n      keccak256\n      not(0x1f)\n        /* \"#utility.yul\":3335:3355   */\n      dup6\n      and\n      swap2\n        /* \"#utility.yul\":3453:3675   */\n    tag_84:\n        /* \"#utility.yul\":3467:3474   */\n      dup3\n        /* \"#utility.yul\":3464:3465   */\n      dup2\n        /* \"#utility.yul\":3461:3475   */\n      lt\n        /* \"#utility.yul\":3453:3675   */\n      iszero\n      tag_86\n      jumpi\n        /* \"#utility.yul\":3549:3568   */\n      dup8\n      dup6\n      add\n        /* \"#utility.yul\":3543:3569   */\n      mload\n        /* \"#utility.yul\":3528:3570   */\n      dup3\n      sstore\n        /* \"#utility.yul\":3656:3660   */\n      0x20\n        /* \"#utility.yul\":3641:3661   */\n      swap5\n      dup6\n      add\n      swap5\n        /* \"#utility.yul\":3609:3610   */\n      0x01\n        /* \"#utility.yul\":3597:3611   */\n      swap1\n      swap3\n      add\n      swap2\n        /* \"#utility.yul\":3483:3495   */\n      add\n        /* \"#utility.yul\":3453:3675   */\n      jump(tag_84)\n    tag_86:\n        /* \"#utility.yul\":3457:3460   */\n      pop\n        /* \"#utility.yul\":3703:3709   */\n      dup5\n        /* \"#utility.yul\":3694:3701   */\n      dup3\n        /* \"#utility.yul\":3691:3710   */\n      lt\n        /* \"#utility.yul\":3688:3889   */\n      iszero\n      tag_87\n      jumpi\n        /* \"#utility.yul\":3764:3783   */\n      dup7\n      dup5\n      add\n        /* \"#utility.yul\":3758:3784   */\n      mload\n      not(0x00)\n        /* \"#utility.yul\":3847:3848   */\n      0x03\n        /* \"#utility.yul\":3843:3857   */\n      dup8\n      swap1\n      shl\n        /* \"#utility.yul\":3859:3862   */\n      0xf8\n        /* \"#utility.yul\":3839:3863   */\n      and\n        /* \"#utility.yul\":3835:3872   */\n      shr\n        /* \"#utility.yul\":3831:3873   */\n      not\n        /* \"#utility.yul\":3816:3874   */\n      and\n        /* \"#utility.yul\":3801:3875   */\n      dup2\n      sstore\n        /* \"#utility.yul\":3688:3889   */\n    tag_87:\n      pop\n      pop\n      pop\n      pop\n        /* \"#utility.yul\":3935:3936   */\n      0x01\n        /* \"#utility.yul\":3919:3933   */\n      swap1\n      dup2\n      shl\n        /* \"#utility.yul\":3915:3937   */\n      add\n        /* \"#utility.yul\":3902:3938   */\n      swap1\n      sstore\n      pop\n        /* \"#utility.yul\":2906:4205   */\n      jump\t// out\n\n    auxdata: 0xa2646970667358221220ea34f1db7ed241d3527ff3745bc88d55ecf5007ca7d6691c2fc588b130d3455764736f6c634300081a0033\n}\n",
				"bytecode": {
					"linkReferences": {},
					"object": "601f60015560c0604052600360809081526231323360e81b60a05260029061002790826100d1565b50348015610033575f80fd5b5061018b565b634e487b7160e01b5f52604160045260245ffd5b600181811c9082168061006157607f821691505b60208210810361007f57634e487b7160e01b5f52602260045260245ffd5b50919050565b601f8211156100cc57805f5260205f20601f840160051c810160208510156100aa5750805b601f840160051c820191505b818110156100c9575f81556001016100b6565b50505b505050565b81516001600160401b038111156100ea576100ea610039565b6100fe816100f8845461004d565b84610085565b6020601f821160018114610130575f83156101195750848201515b5f19600385901b1c1916600184901b1784556100c9565b5f84815260208120601f198516915b8281101561015f578785015182556020948501946001909201910161013f565b508482101561017c57868401515f19600387901b60f8161c191681555b50505050600190811b01905550565b610481806101985f395ff3fe608060405234801561000f575f80fd5b5060043610610055575f3560e01c806317d7de7c146100595780633a32b54914610077578063967e6e65146100a4578063af640d0f146100ba578063c47f0027146100c2575b5f80fd5b6100616100d7565b60405161006e9190610210565b60405180910390f35b60408051808201909152601181527022bc3a32b93730b610233ab731ba34b7b760791b6020820152610061565b6100ac610166565b60405190815260200161006e565b610061610175565b6100d56100d0366004610259565b610201565b005b60605f80546100e59061030c565b80601f01602080910402602001604051908101604052809291908181526020018280546101119061030c565b801561015c5780601f106101335761010080835404028352916020019161015c565b820191905f5260205f20905b81548152906001019060200180831161013f57829003601f168201915b5050505050905090565b5f61017060015490565b905090565b600280546101829061030c565b80601f01602080910402602001604051908101604052809291908181526020018280546101ae9061030c565b80156101f95780601f106101d0576101008083540402835291602001916101f9565b820191905f5260205f20905b8154815290600101906020018083116101dc57829003601f168201915b505050505081565b5f61020c8282610390565b5050565b602081525f82518060208401528060208501604085015e5f604082850101526040601f19601f83011684010191505092915050565b634e487b7160e01b5f52604160045260245ffd5b5f60208284031215610269575f80fd5b813567ffffffffffffffff81111561027f575f80fd5b8201601f8101841361028f575f80fd5b803567ffffffffffffffff8111156102a9576102a9610245565b604051601f8201601f19908116603f0116810167ffffffffffffffff811182821017156102d8576102d8610245565b6040528181528282016020018610156102ef575f80fd5b816020840160208301375f91810160200191909152949350505050565b600181811c9082168061032057607f821691505b60208210810361033e57634e487b7160e01b5f52602260045260245ffd5b50919050565b601f82111561038b57805f5260205f20601f840160051c810160208510156103695750805b601f840160051c820191505b81811015610388575f8155600101610375565b50505b505050565b815167ffffffffffffffff8111156103aa576103aa610245565b6103be816103b8845461030c565b84610344565b6020601f8211600181146103f0575f83156103d95750848201515b5f19600385901b1c1916600184901b178455610388565b5f84815260208120601f198516915b8281101561041f57878501518255602094850194600190920191016103ff565b508482101561043c57868401515f19600387901b60f8161c191681555b50505050600190811b0190555056fea2646970667358221220ea34f1db7ed241d3527ff3745bc88d55ecf5007ca7d6691c2fc588b130d3455764736f6c634300081a0033",
					"opcodes": "PUSH1 0x1F PUSH1 0x1 SSTORE PUSH1 0xC0 PUSH1 0x40 MSTORE PUSH1 0x3 PUSH1 0x80 SWAP1 DUP2 MSTORE PUSH3 0x313233 PUSH1 0xE8 SHL PUSH1 0xA0 MSTORE PUSH1 0x2 SWAP1 PUSH2 0x27 SWAP1 DUP3 PUSH2 0xD1 JUMP JUMPDEST POP CALLVALUE DUP1 ISZERO PUSH2 0x33 JUMPI PUSH0 DUP1 REVERT JUMPDEST POP PUSH2 0x18B JUMP JUMPDEST PUSH4 0x4E487B71 PUSH1 0xE0 SHL PUSH0 MSTORE PUSH1 0x41 PUSH1 0x4 MSTORE PUSH1 0x24 PUSH0 REVERT JUMPDEST PUSH1 0x1 DUP2 DUP2 SHR SWAP1 DUP3 AND DUP1 PUSH2 0x61 JUMPI PUSH1 0x7F DUP3 AND SWAP2 POP JUMPDEST PUSH1 0x20 DUP3 LT DUP2 SUB PUSH2 0x7F JUMPI PUSH4 0x4E487B71 PUSH1 0xE0 SHL PUSH0 MSTORE PUSH1 0x22 PUSH1 0x4 MSTORE PUSH1 0x24 PUSH0 REVERT JUMPDEST POP SWAP2 SWAP1 POP JUMP JUMPDEST PUSH1 0x1F DUP3 GT ISZERO PUSH2 0xCC JUMPI DUP1 PUSH0 MSTORE PUSH1 0x20 PUSH0 KECCAK256 PUSH1 0x1F DUP5 ADD PUSH1 0x5 SHR DUP2 ADD PUSH1 0x20 DUP6 LT ISZERO PUSH2 0xAA JUMPI POP DUP1 JUMPDEST PUSH1 0x1F DUP5 ADD PUSH1 0x5 SHR DUP3 ADD SWAP2 POP JUMPDEST DUP2 DUP2 LT ISZERO PUSH2 0xC9 JUMPI PUSH0 DUP2 SSTORE PUSH1 0x1 ADD PUSH2 0xB6 JUMP JUMPDEST POP POP JUMPDEST POP POP POP JUMP JUMPDEST DUP2 MLOAD PUSH1 0x1 PUSH1 0x1 PUSH1 0x40 SHL SUB DUP2 GT ISZERO PUSH2 0xEA JUMPI PUSH2 0xEA PUSH2 0x39 JUMP JUMPDEST PUSH2 0xFE DUP2 PUSH2 0xF8 DUP5 SLOAD PUSH2 0x4D JUMP JUMPDEST DUP5 PUSH2 0x85 JUMP JUMPDEST PUSH1 0x20 PUSH1 0x1F DUP3 GT PUSH1 0x1 DUP2 EQ PUSH2 0x130 JUMPI PUSH0 DUP4 ISZERO PUSH2 0x119 JUMPI POP DUP5 DUP3 ADD MLOAD JUMPDEST PUSH0 NOT PUSH1 0x3 DUP6 SWAP1 SHL SHR NOT AND PUSH1 0x1 DUP5 SWAP1 SHL OR DUP5 SSTORE PUSH2 0xC9 JUMP JUMPDEST PUSH0 DUP5 DUP2 MSTORE PUSH1 0x20 DUP2 KECCAK256 PUSH1 0x1F NOT DUP6 AND SWAP2 JUMPDEST DUP3 DUP2 LT ISZERO PUSH2 0x15F JUMPI DUP8 DUP6 ADD MLOAD DUP3 SSTORE PUSH1 0x20 SWAP5 DUP6 ADD SWAP5 PUSH1 0x1 SWAP1 SWAP3 ADD SWAP2 ADD PUSH2 0x13F JUMP JUMPDEST POP DUP5 DUP3 LT ISZERO PUSH2 0x17C JUMPI DUP7 DUP5 ADD MLOAD PUSH0 NOT PUSH1 0x3 DUP8 SWAP1 SHL PUSH1 0xF8 AND SHR NOT AND DUP2 SSTORE JUMPDEST POP POP POP POP PUSH1 0x1 SWAP1 DUP2 SHL ADD SWAP1 SSTORE POP JUMP JUMPDEST PUSH2 0x481 DUP1 PUSH2 0x198 PUSH0 CODECOPY PUSH0 RETURN INVALID PUSH1 0x80 PUSH1 0x40 MSTORE CALLVALUE DUP1 ISZERO PUSH2 0xF JUMPI PUSH0 DUP1 REVERT JUMPDEST POP PUSH1 0x4 CALLDATASIZE LT PUSH2 0x55 JUMPI PUSH0 CALLDATALOAD PUSH1 0xE0 SHR DUP1 PUSH4 0x17D7DE7C EQ PUSH2 0x59 JUMPI DUP1 PUSH4 0x3A32B549 EQ PUSH2 0x77 JUMPI DUP1 PUSH4 0x967E6E65 EQ PUSH2 0xA4 JUMPI DUP1 PUSH4 0xAF640D0F EQ PUSH2 0xBA JUMPI DUP1 PUSH4 0xC47F0027 EQ PUSH2 0xC2 JUMPI JUMPDEST PUSH0 DUP1 REVERT JUMPDEST PUSH2 0x61 PUSH2 0xD7 JUMP JUMPDEST PUSH1 0x40 MLOAD PUSH2 0x6E SWAP2 SWAP1 PUSH2 0x210 JUMP JUMPDEST PUSH1 0x40 MLOAD DUP1 SWAP2 SUB SWAP1 RETURN JUMPDEST PUSH1 0x40 DUP1 MLOAD DUP1 DUP3 ADD SWAP1 SWAP2 MSTORE PUSH1 0x11 DUP2 MSTORE PUSH17 0x22BC3A32B93730B610233AB731BA34B7B7 PUSH1 0x79 SHL PUSH1 0x20 DUP3 ADD MSTORE PUSH2 0x61 JUMP JUMPDEST PUSH2 0xAC PUSH2 0x166 JUMP JUMPDEST PUSH1 0x40 MLOAD SWAP1 DUP2 MSTORE PUSH1 0x20 ADD PUSH2 0x6E JUMP JUMPDEST PUSH2 0x61 PUSH2 0x175 JUMP JUMPDEST PUSH2 0xD5 PUSH2 0xD0 CALLDATASIZE PUSH1 0x4 PUSH2 0x259 JUMP JUMPDEST PUSH2 0x201 JUMP JUMPDEST STOP JUMPDEST PUSH1 0x60 PUSH0 DUP1 SLOAD PUSH2 0xE5 SWAP1 PUSH2 0x30C JUMP JUMPDEST DUP1 PUSH1 0x1F ADD PUSH1 0x20 DUP1 SWAP2 DIV MUL PUSH1 0x20 ADD PUSH1 0x40 MLOAD SWAP1 DUP2 ADD PUSH1 0x40 MSTORE DUP1 SWAP3 SWAP2 SWAP1 DUP2 DUP2 MSTORE PUSH1 0x20 ADD DUP3 DUP1 SLOAD PUSH2 0x111 SWAP1 PUSH2 0x30C JUMP JUMPDEST DUP1 ISZERO PUSH2 0x15C JUMPI DUP1 PUSH1 0x1F LT PUSH2 0x133 JUMPI PUSH2 0x100 DUP1 DUP4 SLOAD DIV MUL DUP4 MSTORE SWAP2 PUSH1 0x20 ADD SWAP2 PUSH2 0x15C JUMP JUMPDEST DUP3 ADD SWAP2 SWAP1 PUSH0 MSTORE PUSH1 0x20 PUSH0 KECCAK256 SWAP1 JUMPDEST DUP2 SLOAD DUP2 MSTORE SWAP1 PUSH1 0x1 ADD SWAP1 PUSH1 0x20 ADD DUP1 DUP4 GT PUSH2 0x13F JUMPI DUP3 SWAP1 SUB PUSH1 0x1F AND DUP3 ADD SWAP2 JUMPDEST POP POP POP POP POP SWAP1 POP SWAP1 JUMP JUMPDEST PUSH0 PUSH2 0x170 PUSH1 0x1 SLOAD SWAP1 JUMP JUMPDEST SWAP1 POP SWAP1 JUMP JUMPDEST PUSH1 0x2 DUP1 SLOAD PUSH2 0x182 SWAP1 PUSH2 0x30C JUMP JUMPDEST DUP1 PUSH1 0x1F ADD PUSH1 0x20 DUP1 SWAP2 DIV MUL PUSH1 0x20 ADD PUSH1 0x40 MLOAD SWAP1 DUP2 ADD PUSH1 0x40 MSTORE DUP1 SWAP3 SWAP2 SWAP1 DUP2 DUP2 MSTORE PUSH1 0x20 ADD DUP3 DUP1 SLOAD PUSH2 0x1AE SWAP1 PUSH2 0x30C JUMP JUMPDEST DUP1 ISZERO PUSH2 0x1F9 JUMPI DUP1 PUSH1 0x1F LT PUSH2 0x1D0 JUMPI PUSH2 0x100 DUP1 DUP4 SLOAD DIV MUL DUP4 MSTORE SWAP2 PUSH1 0x20 ADD SWAP2 PUSH2 0x1F9 JUMP JUMPDEST DUP3 ADD SWAP2 SWAP1 PUSH0 MSTORE PUSH1 0x20 PUSH0 KECCAK256 SWAP1 JUMPDEST DUP2 SLOAD DUP2 MSTORE SWAP1 PUSH1 0x1 ADD SWAP1 PUSH1 0x20 ADD DUP1 DUP4 GT PUSH2 0x1DC JUMPI DUP3 SWAP1 SUB PUSH1 0x1F AND DUP3 ADD SWAP2 JUMPDEST POP POP POP POP POP DUP2 JUMP JUMPDEST PUSH0 PUSH2 0x20C DUP3 DUP3 PUSH2 0x390 JUMP JUMPDEST POP POP JUMP JUMPDEST PUSH1 0x20 DUP2 MSTORE PUSH0 DUP3 MLOAD DUP1 PUSH1 0x20 DUP5 ADD MSTORE DUP1 PUSH1 0x20 DUP6 ADD PUSH1 0x40 DUP6 ADD MCOPY PUSH0 PUSH1 0x40 DUP3 DUP6 ADD ADD MSTORE PUSH1 0x40 PUSH1 0x1F NOT PUSH1 0x1F DUP4 ADD AND DUP5 ADD ADD SWAP2 POP POP SWAP3 SWAP2 POP POP JUMP JUMPDEST PUSH4 0x4E487B71 PUSH1 0xE0 SHL PUSH0 MSTORE PUSH1 0x41 PUSH1 0x4 MSTORE PUSH1 0x24 PUSH0 REVERT JUMPDEST PUSH0 PUSH1 0x20 DUP3 DUP5 SUB SLT ISZERO PUSH2 0x269 JUMPI PUSH0 DUP1 REVERT JUMPDEST DUP2 CALLDATALOAD PUSH8 0xFFFFFFFFFFFFFFFF DUP2 GT ISZERO PUSH2 0x27F JUMPI PUSH0 DUP1 REVERT JUMPDEST DUP3 ADD PUSH1 0x1F DUP2 ADD DUP5 SGT PUSH2 0x28F JUMPI PUSH0 DUP1 REVERT JUMPDEST DUP1 CALLDATALOAD PUSH8 0xFFFFFFFFFFFFFFFF DUP2 GT ISZERO PUSH2 0x2A9 JUMPI PUSH2 0x2A9 PUSH2 0x245 JUMP JUMPDEST PUSH1 0x40 MLOAD PUSH1 0x1F DUP3 ADD PUSH1 0x1F NOT SWAP1 DUP2 AND PUSH1 0x3F ADD AND DUP2 ADD PUSH8 0xFFFFFFFFFFFFFFFF DUP2 GT DUP3 DUP3 LT OR ISZERO PUSH2 0x2D8 JUMPI PUSH2 0x2D8 PUSH2 0x245 JUMP JUMPDEST PUSH1 0x40 MSTORE DUP2 DUP2 MSTORE DUP3 DUP3 ADD PUSH1 0x20 ADD DUP7 LT ISZERO PUSH2 0x2EF JUMPI PUSH0 DUP1 REVERT JUMPDEST DUP2 PUSH1 0x20 DUP5 ADD PUSH1 0x20 DUP4 ADD CALLDATACOPY PUSH0 SWAP2 DUP2 ADD PUSH1 0x20 ADD SWAP2 SWAP1 SWAP2 MSTORE SWAP5 SWAP4 POP POP POP POP JUMP JUMPDEST PUSH1 0x1 DUP2 DUP2 SHR SWAP1 DUP3 AND DUP1 PUSH2 0x320 JUMPI PUSH1 0x7F DUP3 AND SWAP2 POP JUMPDEST PUSH1 0x20 DUP3 LT DUP2 SUB PUSH2 0x33E JUMPI PUSH4 0x4E487B71 PUSH1 0xE0 SHL PUSH0 MSTORE PUSH1 0x22 PUSH1 0x4 MSTORE PUSH1 0x24 PUSH0 REVERT JUMPDEST POP SWAP2 SWAP1 POP JUMP JUMPDEST PUSH1 0x1F DUP3 GT ISZERO PUSH2 0x38B JUMPI DUP1 PUSH0 MSTORE PUSH1 0x20 PUSH0 KECCAK256 PUSH1 0x1F DUP5 ADD PUSH1 0x5 SHR DUP2 ADD PUSH1 0x20 DUP6 LT ISZERO PUSH2 0x369 JUMPI POP DUP1 JUMPDEST PUSH1 0x1F DUP5 ADD PUSH1 0x5 SHR DUP3 ADD SWAP2 POP JUMPDEST DUP2 DUP2 LT ISZERO PUSH2 0x388 JUMPI PUSH0 DUP2 SSTORE PUSH1 0x1 ADD PUSH2 0x375 JUMP JUMPDEST POP POP JUMPDEST POP POP POP JUMP JUMPDEST DUP2 MLOAD PUSH8 0xFFFFFFFFFFFFFFFF DUP2 GT ISZERO PUSH2 0x3AA JUMPI PUSH2 0x3AA PUSH2 0x245 JUMP JUMPDEST PUSH2 0x3BE DUP2 PUSH2 0x3B8 DUP5 SLOAD PUSH2 0x30C JUMP JUMPDEST DUP5 PUSH2 0x344 JUMP JUMPDEST PUSH1 0x20 PUSH1 0x1F DUP3 GT PUSH1 0x1 DUP2 EQ PUSH2 0x3F0 JUMPI PUSH0 DUP4 ISZERO PUSH2 0x3D9 JUMPI POP DUP5 DUP3 ADD MLOAD JUMPDEST PUSH0 NOT PUSH1 0x3 DUP6 SWAP1 SHL SHR NOT AND PUSH1 0x1 DUP5 SWAP1 SHL OR DUP5 SSTORE PUSH2 0x388 JUMP JUMPDEST PUSH0 DUP5 DUP2 MSTORE PUSH1 0x20 DUP2 KECCAK256 PUSH1 0x1F NOT DUP6 AND SWAP2 JUMPDEST DUP3 DUP2 LT ISZERO PUSH2 0x41F JUMPI DUP8 DUP6 ADD MLOAD DUP3 SSTORE PUSH1 0x20 SWAP5 DUP6 ADD SWAP5 PUSH1 0x1 SWAP1 SWAP3 ADD SWAP2 ADD PUSH2 0x3FF JUMP JUMPDEST POP DUP5 DUP3 LT ISZERO PUSH2 0x43C JUMPI DUP7 DUP5 ADD MLOAD PUSH0 NOT PUSH1 0x3 DUP8 SWAP1 SHL PUSH1 0xF8 AND SHR NOT AND DUP2 SSTORE JUMPDEST POP POP POP POP PUSH1 0x1 SWAP1 DUP2 SHL ADD SWAP1 SSTORE POP JUMP INVALID LOG2 PUSH5 0x6970667358 0x22 SLT KECCAK256 0xEA CALLVALUE CALL 0xDB PUSH31 0xD241D3527FF3745BC88D55ECF5007CA7D6691C2FC588B130D3455764736F6C PUSH4 0x4300081A STOP CALLER "
				},
				"gasEstimates": {
					"creation": {
						"codeDepositCost": "230600",
						"executionCost": "infinite",
						"totalCost": "infinite"
					},
					"external": {
						"externalFunction()": "infinite",
						"getAge()": "2350",
						"getName()": "infinite",
						"id()": "infinite",
						"setName(string)": "infinite"
					},
					"internal": {
						"privateFunction()": "infinite"
					}
				},
				"methodIdentifiers": {
					"externalFunction()": "3a32b549",
					"getAge()": "967e6e65",
					"getName()": "17d7de7c",
					"id()": "af640d0f",
					"setName(string)": "c47f0027"
				}
			},
			"storageLayout": {
				"storage": [
					{
						"astId": 3,
						"contract": "contracts/day_1/6.Visibility.sol:Visibility",
						"label": "name",
						"offset": 0,
						"slot": "0",
						"type": "t_string_storage"
					},
					{
						"astId": 6,
						"contract": "contracts/day_1/6.Visibility.sol:Visibility",
						"label": "age",
						"offset": 0,
						"slot": "1",
						"type": "t_uint256"
					},
					{
						"astId": 9,
						"contract": "contracts/day_1/6.Visibility.sol:Visibility",
						"label": "id",
						"offset": 0,
						"slot": "2",
						"type": "t_string_storage"
					}
				],
				"types": {
					"t_string_storage": {
						"encoding": "bytes",
						"label": "string",
						"numberOfBytes": "32"
					},
					"t_uint256": {
						"encoding": "inplace",
						"label": "uint256",
						"numberOfBytes": "32"
					}
				}
			},
			"userdoc": {
				"kind": "user",
				"methods": {},
				"version": 1
			}
		}
	}
}