{
	"contracts/day_1/2.Operator.sol": {
		"Operator": {
			"abi": [
				{
					"inputs": [],
					"name": "add",
					"outputs": [
						{
							"internalType": "uint256",
							"name": "",
							"type": "uint256"
						}
					],
					"stateMutability": "view",
					"type": "function"
				},
				{
					"inputs": [],
					"name": "div",
					"outputs": [
						{
							"internalType": "uint256",
							"name": "",
							"type": "uint256"
						}
					],
					"stateMutability": "view",
					"type": "function"
				},
				{
					"inputs": [],
					"name": "getAdd",
					"outputs": [
						{
							"internalType": "uint256",
							"name": "",
							"type": "uint256"
						}
					],
					"stateMutability": "nonpayable",
					"type": "function"
				},
				{
					"inputs": [],
					"name": "getDiv",
					"outputs": [
						{
							"internalType": "uint256",
							"name": "",
							"type": "uint256"
						}
					],
					"stateMutability": "nonpayable",
					"type": "function"
				},
				{
					"inputs": [],
					"name": "getMod",
					"outputs": [
						{
							"internalType": "uint256",
							"name": "",
							"type": "uint256"
						}
					],
					"stateMutability": "nonpayable",
					"type": "function"
				},
				{
					"inputs": [],
					"name": "getMul",
					"outputs": [
						{
							"internalType": "uint256",
							"name": "",
							"type": "uint256"
						}
					],
					"stateMutability": "nonpayable",
					"type": "function"
				},
				{
					"inputs": [],
					"name": "getSub",
					"outputs": [
						{
							"internalType": "uint256",
							"name": "",
							"type": "uint256"
						}
					],
					"stateMutability": "nonpayable",
					"type": "function"
				},
				{
					"inputs": [],
					"name": "mod",
					"outputs": [
						{
							"internalType": "uint256",
							"name": "",
							"type": "uint256"
						}
					],
					"stateMutability": "view",
					"type": "function"
				},
				{
					"inputs": [],
					"name": "mul",
					"outputs": [
						{
							"internalType": "uint256",
							"name": "",
							"type": "uint256"
						}
					],
					"stateMutability": "view",
					"type": "function"
				},
				{
					"inputs": [],
					"name": "sub",
					"outputs": [
						{
							"internalType": "uint256",
							"name": "",
							"type": "uint256"
						}
					],
					"stateMutability": "view",
					"type": "function"
				}
			],
			"devdoc": {
				"kind": "dev",
				"methods": {},
				"version": 1
			},
			"evm": {
				"assembly": "    /* \"contracts/day_1/2.Operator.sol\":63:727  contract Operator{... */\n  mstore(0x40, 0x80)\n    /* \"contracts/day_1/2.Operator.sol\":108:110  10 */\n  0x0a\n    /* \"contracts/day_1/2.Operator.sol\":87:110  uint256 public add = 10 */\n  0x00\n  sstore\n    /* \"contracts/day_1/2.Operator.sol\":138:140  20 */\n  0x14\n    /* \"contracts/day_1/2.Operator.sol\":117:140  uint256 public sub = 20 */\n  0x01\n  sstore\n    /* \"contracts/day_1/2.Operator.sol\":168:170  30 */\n  0x1e\n    /* \"contracts/day_1/2.Operator.sol\":147:170  uint256 public mul = 30 */\n  0x02\n  sstore\n    /* \"contracts/day_1/2.Operator.sol\":198:200  40 */\n  0x28\n    /* \"contracts/day_1/2.Operator.sol\":177:200  uint256 public div = 40 */\n  0x03\n  sstore\n    /* \"contracts/day_1/2.Operator.sol\":228:230  50 */\n  0x32\n    /* \"contracts/day_1/2.Operator.sol\":207:230  uint256 public mod = 50 */\n  0x04\n  sstore\n    /* \"contracts/day_1/2.Operator.sol\":63:727  contract Operator{... */\n  callvalue\n  dup1\n  iszero\n  tag_1\n  jumpi\n  0x00\n  dup1\n  revert\ntag_1:\n  pop\n  dataSize(sub_0)\n  dup1\n  dataOffset(sub_0)\n  0x00\n  codecopy\n  0x00\n  return\nstop\n\nsub_0: assembly {\n        /* \"contracts/day_1/2.Operator.sol\":63:727  contract Operator{... */\n      mstore(0x40, 0x80)\n      callvalue\n      dup1\n      iszero\n      tag_1\n      jumpi\n      0x00\n      dup1\n      revert\n    tag_1:\n      pop\n      jumpi(tag_2, lt(calldatasize, 0x04))\n      shr(0xe0, calldataload(0x00))\n      dup1\n      0x815f2147\n      gt\n      tag_13\n      jumpi\n      dup1\n      0x815f2147\n      eq\n      tag_8\n      jumpi\n      dup1\n      0x99130cc4\n      eq\n      tag_9\n      jumpi\n      dup1\n      0xc54124be\n      eq\n      tag_10\n      jumpi\n      dup1\n      0xd14d42ba\n      eq\n      tag_11\n      jumpi\n      dup1\n      0xf9fa48c3\n      eq\n      tag_12\n      jumpi\n      0x00\n      dup1\n      revert\n    tag_13:\n      dup1\n      0x2986e054\n      eq\n      tag_3\n      jumpi\n      dup1\n      0x488f38db\n      eq\n      tag_4\n      jumpi\n      dup1\n      0x4f2be91f\n      eq\n      tag_5\n      jumpi\n      dup1\n      0x58931c46\n      eq\n      tag_6\n      jumpi\n      dup1\n      0x6457750c\n      eq\n      tag_7\n      jumpi\n    tag_2:\n      0x00\n      dup1\n      revert\n        /* \"contracts/day_1/2.Operator.sol\":207:230  uint256 public mod = 50 */\n    tag_3:\n      tag_14\n      sload(0x04)\n      dup2\n      jump\n    tag_14:\n      mload(0x40)\n        /* \"#utility.yul\":160:185   */\n      swap1\n      dup2\n      mstore\n        /* \"#utility.yul\":148:150   */\n      0x20\n        /* \"#utility.yul\":133:151   */\n      add\n        /* \"contracts/day_1/2.Operator.sol\":207:230  uint256 public mod = 50 */\n      mload(0x40)\n      dup1\n      swap2\n      sub\n      swap1\n      return\n        /* \"contracts/day_1/2.Operator.sol\":538:627  function getDiv() public returns(uint256){... */\n    tag_4:\n      tag_14\n      tag_19\n      jump\t// in\n        /* \"contracts/day_1/2.Operator.sol\":87:110  uint256 public add = 10 */\n    tag_5:\n      tag_14\n      sload(0x00)\n      dup2\n      jump\n        /* \"contracts/day_1/2.Operator.sol\":147:170  uint256 public mul = 30 */\n    tag_6:\n      tag_14\n      sload(0x02)\n      dup2\n      jump\n        /* \"contracts/day_1/2.Operator.sol\":635:724  function getMod() public returns(uint256){... */\n    tag_7:\n      tag_14\n      tag_28\n      jump\t// in\n        /* \"contracts/day_1/2.Operator.sol\":343:433  function getSub() public returns(uint256){... */\n    tag_8:\n      tag_14\n      tag_31\n      jump\t// in\n        /* \"contracts/day_1/2.Operator.sol\":441:530  function getMul() public returns(uint256){... */\n    tag_9:\n      tag_14\n      tag_34\n      jump\t// in\n        /* \"contracts/day_1/2.Operator.sol\":117:140  uint256 public sub = 20 */\n    tag_10:\n      tag_14\n      sload(0x01)\n      dup2\n      jump\n        /* \"contracts/day_1/2.Operator.sol\":243:335  function getAdd() public  returns(uint256) {... */\n    tag_11:\n      tag_14\n      tag_40\n      jump\t// in\n        /* \"contracts/day_1/2.Operator.sol\":177:200  uint256 public div = 40 */\n    tag_12:\n      tag_14\n      sload(0x03)\n      dup2\n      jump\n        /* \"contracts/day_1/2.Operator.sol\":538:627  function getDiv() public returns(uint256){... */\n    tag_19:\n        /* \"contracts/day_1/2.Operator.sol\":571:578  uint256 */\n      0x00\n        /* \"contracts/day_1/2.Operator.sol\":597:598  2 */\n      0x02\n        /* \"contracts/day_1/2.Operator.sol\":590:593  div */\n      0x03\n      0x00\n        /* \"contracts/day_1/2.Operator.sol\":590:598  div /= 2 */\n      dup3\n      dup3\n      sload\n      tag_46\n      swap2\n      swap1\n      tag_47\n      jump\t// in\n    tag_46:\n      swap1\n      swap2\n      sstore\n      pop\n      pop\n        /* \"contracts/day_1/2.Operator.sol\":616:619  div */\n      sload(0x03)\n      swap2\n        /* \"contracts/day_1/2.Operator.sol\":538:627  function getDiv() public returns(uint256){... */\n      swap1\n      pop\n      jump\t// out\n        /* \"contracts/day_1/2.Operator.sol\":635:724  function getMod() public returns(uint256){... */\n    tag_28:\n        /* \"contracts/day_1/2.Operator.sol\":668:675  uint256 */\n      0x00\n        /* \"contracts/day_1/2.Operator.sol\":694:695  2 */\n      0x02\n        /* \"contracts/day_1/2.Operator.sol\":687:690  mod */\n      0x04\n      0x00\n        /* \"contracts/day_1/2.Operator.sol\":687:695  mod %= 2 */\n      dup3\n      dup3\n      sload\n      tag_49\n      swap2\n      swap1\n      tag_50\n      jump\t// in\n    tag_49:\n      swap1\n      swap2\n      sstore\n      pop\n      pop\n        /* \"contracts/day_1/2.Operator.sol\":713:716  mod */\n      sload(0x04)\n      swap2\n        /* \"contracts/day_1/2.Operator.sol\":635:724  function getMod() public returns(uint256){... */\n      swap1\n      pop\n      jump\t// out\n        /* \"contracts/day_1/2.Operator.sol\":343:433  function getSub() public returns(uint256){... */\n    tag_31:\n        /* \"contracts/day_1/2.Operator.sol\":376:383  uint256 */\n      0x00\n        /* \"contracts/day_1/2.Operator.sol\":402:404  10 */\n      0x0a\n        /* \"contracts/day_1/2.Operator.sol\":395:398  sub */\n      0x01\n      0x00\n        /* \"contracts/day_1/2.Operator.sol\":395:404  sub -= 10 */\n      dup3\n      dup3\n      sload\n      tag_52\n      swap2\n      swap1\n      tag_53\n      jump\t// in\n    tag_52:\n      swap1\n      swap2\n      sstore\n      pop\n      pop\n        /* \"contracts/day_1/2.Operator.sol\":422:425  sub */\n      sload(0x01)\n      swap2\n        /* \"contracts/day_1/2.Operator.sol\":343:433  function getSub() public returns(uint256){... */\n      swap1\n      pop\n      jump\t// out\n        /* \"contracts/day_1/2.Operator.sol\":441:530  function getMul() public returns(uint256){... */\n    tag_34:\n        /* \"contracts/day_1/2.Operator.sol\":474:481  uint256 */\n      0x00\n        /* \"contracts/day_1/2.Operator.sol\":500:501  2 */\n      0x02\n        /* \"contracts/day_1/2.Operator.sol\":493:496  mul */\n      dup1\n      0x00\n        /* \"contracts/day_1/2.Operator.sol\":493:501  mul *= 2 */\n      dup3\n      dup3\n      sload\n      tag_55\n      swap2\n      swap1\n      tag_56\n      jump\t// in\n    tag_55:\n      swap1\n      swap2\n      sstore\n      pop\n      pop\n        /* \"contracts/day_1/2.Operator.sol\":519:522  mul */\n      sload(0x02)\n      swap2\n        /* \"contracts/day_1/2.Operator.sol\":441:530  function getMul() public returns(uint256){... */\n      swap1\n      pop\n      jump\t// out\n        /* \"contracts/day_1/2.Operator.sol\":243:335  function getAdd() public  returns(uint256) {... */\n    tag_40:\n        /* \"contracts/day_1/2.Operator.sol\":277:284  uint256 */\n      0x00\n        /* \"contracts/day_1/2.Operator.sol\":304:306  10 */\n      0x0a\n        /* \"contracts/day_1/2.Operator.sol\":297:300  add */\n      0x00\n      dup1\n        /* \"contracts/day_1/2.Operator.sol\":297:306  add += 10 */\n      dup3\n      dup3\n      sload\n      tag_58\n      swap2\n      swap1\n      tag_59\n      jump\t// in\n    tag_58:\n      swap1\n      swap2\n      sstore\n      pop\n      pop\n        /* \"contracts/day_1/2.Operator.sol\":324:327  add */\n      sload(0x00)\n      swap2\n        /* \"contracts/day_1/2.Operator.sol\":243:335  function getAdd() public  returns(uint256) {... */\n      swap1\n      pop\n      jump\t// out\n        /* \"#utility.yul\":196:323   */\n    tag_60:\n        /* \"#utility.yul\":257:267   */\n      0x4e487b71\n        /* \"#utility.yul\":252:255   */\n      0xe0\n        /* \"#utility.yul\":248:268   */\n      shl\n        /* \"#utility.yul\":245:246   */\n      0x00\n        /* \"#utility.yul\":238:269   */\n      mstore\n        /* \"#utility.yul\":288:292   */\n      0x12\n        /* \"#utility.yul\":285:286   */\n      0x04\n        /* \"#utility.yul\":278:293   */\n      mstore\n        /* \"#utility.yul\":312:316   */\n      0x24\n        /* \"#utility.yul\":309:310   */\n      0x00\n        /* \"#utility.yul\":302:317   */\n      revert\n        /* \"#utility.yul\":328:455   */\n    tag_61:\n        /* \"#utility.yul\":389:399   */\n      0x4e487b71\n        /* \"#utility.yul\":384:387   */\n      0xe0\n        /* \"#utility.yul\":380:400   */\n      shl\n        /* \"#utility.yul\":377:378   */\n      0x00\n        /* \"#utility.yul\":370:401   */\n      mstore\n        /* \"#utility.yul\":420:424   */\n      0x11\n        /* \"#utility.yul\":417:418   */\n      0x04\n        /* \"#utility.yul\":410:425   */\n      mstore\n        /* \"#utility.yul\":444:448   */\n      0x24\n        /* \"#utility.yul\":441:442   */\n      0x00\n        /* \"#utility.yul\":434:449   */\n      revert\n        /* \"#utility.yul\":460:580   */\n    tag_47:\n        /* \"#utility.yul\":500:501   */\n      0x00\n        /* \"#utility.yul\":526:527   */\n      dup3\n        /* \"#utility.yul\":516:551   */\n      tag_68\n      jumpi\n        /* \"#utility.yul\":531:549   */\n      tag_68\n      tag_60\n      jump\t// in\n    tag_68:\n      pop\n        /* \"#utility.yul\":565:574   */\n      div\n      swap1\n        /* \"#utility.yul\":460:580   */\n      jump\t// out\n        /* \"#utility.yul\":585:697   */\n    tag_50:\n        /* \"#utility.yul\":617:618   */\n      0x00\n        /* \"#utility.yul\":643:644   */\n      dup3\n        /* \"#utility.yul\":633:668   */\n      tag_71\n      jumpi\n        /* \"#utility.yul\":648:666   */\n      tag_71\n      tag_60\n      jump\t// in\n    tag_71:\n      pop\n        /* \"#utility.yul\":682:691   */\n      mod\n      swap1\n        /* \"#utility.yul\":585:697   */\n      jump\t// out\n        /* \"#utility.yul\":702:830   */\n    tag_53:\n        /* \"#utility.yul\":769:778   */\n      dup2\n      dup2\n      sub\n        /* \"#utility.yul\":790:801   */\n      dup2\n      dup2\n      gt\n        /* \"#utility.yul\":787:824   */\n      iszero\n      tag_74\n      jumpi\n        /* \"#utility.yul\":804:822   */\n      tag_74\n      tag_61\n      jump\t// in\n    tag_74:\n        /* \"#utility.yul\":702:830   */\n      swap3\n      swap2\n      pop\n      pop\n      jump\t// out\n        /* \"#utility.yul\":835:1003   */\n    tag_56:\n        /* \"#utility.yul\":908:917   */\n      dup1\n      dup3\n      mul\n        /* \"#utility.yul\":939:948   */\n      dup2\n      iszero\n        /* \"#utility.yul\":956:971   */\n      dup3\n      dup3\n      div\n        /* \"#utility.yul\":950:972   */\n      dup5\n      eq\n        /* \"#utility.yul\":936:973   */\n      or\n        /* \"#utility.yul\":926:997   */\n      tag_74\n      jumpi\n        /* \"#utility.yul\":977:995   */\n      tag_74\n      tag_61\n      jump\t// in\n        /* \"#utility.yul\":1008:1133   */\n    tag_59:\n        /* \"#utility.yul\":1073:1082   */\n      dup1\n      dup3\n      add\n        /* \"#utility.yul\":1094:1104   */\n      dup1\n      dup3\n      gt\n        /* \"#utility.yul\":1091:1127   */\n      iszero\n      tag_74\n      jumpi\n        /* \"#utility.yul\":1107:1125   */\n      tag_74\n      tag_61\n      jump\t// in\n\n    auxdata: 0xa2646970667358221220646a0edfc57c4ad408295a1d94c891c6de82458ff570a44dc37f55a22f78273164736f6c634300081a0033\n}\n",
				"bytecode": {
					"linkReferences": {},
					"object": "6080604052600a5f556014600155601e600255602860035560326004553480156026575f80fd5b50610269806100345f395ff3fe608060405234801561000f575f80fd5b506004361061009b575f3560e01c8063815f214711610063578063815f2147146100db57806399130cc4146100e3578063c54124be146100eb578063d14d42ba146100f4578063f9fa48c3146100fc575f80fd5b80632986e0541461009f578063488f38db146100ba5780634f2be91f146100c257806358931c46146100ca5780636457750c146100d3575b5f80fd5b6100a860045481565b60405190815260200160405180910390f35b6100a8610105565b6100a85f5481565b6100a860025481565b6100a8610125565b6100a8610145565b6100a8610165565b6100a860015481565b6100a8610184565b6100a860035481565b5f600260035f82825461011891906101ca565b9091555050600354919050565b5f600260045f82825461013891906101dd565b9091555050600454919050565b5f600a60015f82825461015891906101f0565b9091555050600154919050565b5f6002805f8282546101779190610209565b9091555050600254919050565b5f600a5f808282546101969190610220565b90915550505f54919050565b634e487b7160e01b5f52601260045260245ffd5b634e487b7160e01b5f52601160045260245ffd5b5f826101d8576101d86101a2565b500490565b5f826101eb576101eb6101a2565b500690565b81810381811115610203576102036101b6565b92915050565b8082028115828204841417610203576102036101b6565b80820180821115610203576102036101b656fea2646970667358221220646a0edfc57c4ad408295a1d94c891c6de82458ff570a44dc37f55a22f78273164736f6c634300081a0033",
					"opcodes": "PUSH1 0x80 PUSH1 0x40 MSTORE PUSH1 0xA PUSH0 SSTORE PUSH1 0x14 PUSH1 0x1 SSTORE PUSH1 0x1E PUSH1 0x2 SSTORE PUSH1 0x28 PUSH1 0x3 SSTORE PUSH1 0x32 PUSH1 0x4 SSTORE CALLVALUE DUP1 ISZERO PUSH1 0x26 JUMPI PUSH0 DUP1 REVERT JUMPDEST POP PUSH2 0x269 DUP1 PUSH2 0x34 PUSH0 CODECOPY PUSH0 RETURN INVALID PUSH1 0x80 PUSH1 0x40 MSTORE CALLVALUE DUP1 ISZERO PUSH2 0xF JUMPI PUSH0 DUP1 REVERT JUMPDEST POP PUSH1 0x4 CALLDATASIZE LT PUSH2 0x9B JUMPI PUSH0 CALLDATALOAD PUSH1 0xE0 SHR DUP1 PUSH4 0x815F2147 GT PUSH2 0x63 JUMPI DUP1 PUSH4 0x815F2147 EQ PUSH2 0xDB JUMPI DUP1 PUSH4 0x99130CC4 EQ PUSH2 0xE3 JUMPI DUP1 PUSH4 0xC54124BE EQ PUSH2 0xEB JUMPI DUP1 PUSH4 0xD14D42BA EQ PUSH2 0xF4 JUMPI DUP1 PUSH4 0xF9FA48C3 EQ PUSH2 0xFC JUMPI PUSH0 DUP1 REVERT JUMPDEST DUP1 PUSH4 0x2986E054 EQ PUSH2 0x9F JUMPI DUP1 PUSH4 0x488F38DB EQ PUSH2 0xBA JUMPI DUP1 PUSH4 0x4F2BE91F EQ PUSH2 0xC2 JUMPI DUP1 PUSH4 0x58931C46 EQ PUSH2 0xCA JUMPI DUP1 PUSH4 0x6457750C EQ PUSH2 0xD3 JUMPI JUMPDEST PUSH0 DUP1 REVERT JUMPDEST PUSH2 0xA8 PUSH1 0x4 SLOAD DUP2 JUMP JUMPDEST PUSH1 0x40 MLOAD SWAP1 DUP2 MSTORE PUSH1 0x20 ADD PUSH1 0x40 MLOAD DUP1 SWAP2 SUB SWAP1 RETURN JUMPDEST PUSH2 0xA8 PUSH2 0x105 JUMP JUMPDEST PUSH2 0xA8 PUSH0 SLOAD DUP2 JUMP JUMPDEST PUSH2 0xA8 PUSH1 0x2 SLOAD DUP2 JUMP JUMPDEST PUSH2 0xA8 PUSH2 0x125 JUMP JUMPDEST PUSH2 0xA8 PUSH2 0x145 JUMP JUMPDEST PUSH2 0xA8 PUSH2 0x165 JUMP JUMPDEST PUSH2 0xA8 PUSH1 0x1 SLOAD DUP2 JUMP JUMPDEST PUSH2 0xA8 PUSH2 0x184 JUMP JUMPDEST PUSH2 0xA8 PUSH1 0x3 SLOAD DUP2 JUMP JUMPDEST PUSH0 PUSH1 0x2 PUSH1 0x3 PUSH0 DUP3 DUP3 SLOAD PUSH2 0x118 SWAP2 SWAP1 PUSH2 0x1CA JUMP JUMPDEST SWAP1 SWAP2 SSTORE POP POP PUSH1 0x3 SLOAD SWAP2 SWAP1 POP JUMP JUMPDEST PUSH0 PUSH1 0x2 PUSH1 0x4 PUSH0 DUP3 DUP3 SLOAD PUSH2 0x138 SWAP2 SWAP1 PUSH2 0x1DD JUMP JUMPDEST SWAP1 SWAP2 SSTORE POP POP PUSH1 0x4 SLOAD SWAP2 SWAP1 POP JUMP JUMPDEST PUSH0 PUSH1 0xA PUSH1 0x1 PUSH0 DUP3 DUP3 SLOAD PUSH2 0x158 SWAP2 SWAP1 PUSH2 0x1F0 JUMP JUMPDEST SWAP1 SWAP2 SSTORE POP POP PUSH1 0x1 SLOAD SWAP2 SWAP1 POP JUMP JUMPDEST PUSH0 PUSH1 0x2 DUP1 PUSH0 DUP3 DUP3 SLOAD PUSH2 0x177 SWAP2 SWAP1 PUSH2 0x209 JUMP JUMPDEST SWAP1 SWAP2 SSTORE POP POP PUSH1 0x2 SLOAD SWAP2 SWAP1 POP JUMP JUMPDEST PUSH0 PUSH1 0xA PUSH0 DUP1 DUP3 DUP3 SLOAD PUSH2 0x196 SWAP2 SWAP1 PUSH2 0x220 JUMP JUMPDEST SWAP1 SWAP2 SSTORE POP POP PUSH0 SLOAD SWAP2 SWAP1 POP JUMP JUMPDEST PUSH4 0x4E487B71 PUSH1 0xE0 SHL PUSH0 MSTORE PUSH1 0x12 PUSH1 0x4 MSTORE PUSH1 0x24 PUSH0 REVERT JUMPDEST PUSH4 0x4E487B71 PUSH1 0xE0 SHL PUSH0 MSTORE PUSH1 0x11 PUSH1 0x4 MSTORE PUSH1 0x24 PUSH0 REVERT JUMPDEST PUSH0 DUP3 PUSH2 0x1D8 JUMPI PUSH2 0x1D8 PUSH2 0x1A2 JUMP JUMPDEST POP DIV SWAP1 JUMP JUMPDEST PUSH0 DUP3 PUSH2 0x1EB JUMPI PUSH2 0x1EB PUSH2 0x1A2 JUMP JUMPDEST POP MOD SWAP1 JUMP JUMPDEST DUP2 DUP2 SUB DUP2 DUP2 GT ISZERO PUSH2 0x203 JUMPI PUSH2 0x203 PUSH2 0x1B6 JUMP JUMPDEST SWAP3 SWAP2 POP POP JUMP JUMPDEST DUP1 DUP3 MUL DUP2 ISZERO DUP3 DUP3 DIV DUP5 EQ OR PUSH2 0x203 JUMPI PUSH2 0x203 PUSH2 0x1B6 JUMP JUMPDEST DUP1 DUP3 ADD DUP1 DUP3 GT ISZERO PUSH2 0x203 JUMPI PUSH2 0x203 PUSH2 0x1B6 JUMP INVALID LOG2 PUSH5 0x6970667358 0x22 SLT KECCAK256 PUSH5 0x6A0EDFC57C BLOBBASEFEE 0xD4 ADDMOD 0x29 GAS SAR SWAP5 0xC8 SWAP2 0xC6 0xDE DUP3 GASLIMIT DUP16 CREATE2 PUSH17 0xA44DC37F55A22F78273164736F6C634300 ADDMOD BYTE STOP CALLER "
				},
				"gasEstimates": {
					"creation": {
						"codeDepositCost": "123400",
						"executionCost": "110698",
						"totalCost": "234098"
					},
					"external": {
						"add()": "2326",
						"div()": "2370",
						"getAdd()": "26665",
						"getDiv()": "26607",
						"getMod()": "26673",
						"getMul()": "26638",
						"getSub()": "26600",
						"mod()": "2283",
						"mul()": "2349",
						"sub()": "2326"
					}
				},
				"methodIdentifiers": {
					"add()": "4f2be91f",
					"div()": "f9fa48c3",
					"getAdd()": "d14d42ba",
					"getDiv()": "488f38db",
					"getMod()": "6457750c",
					"getMul()": "99130cc4",
					"getSub()": "815f2147",
					"mod()": "2986e054",
					"mul()": "58931c46",
					"sub()": "c54124be"
				}
			},
			"storageLayout": {
				"storage": [
					{
						"astId": 4,
						"contract": "contracts/day_1/2.Operator.sol:Operator",
						"label": "add",
						"offset": 0,
						"slot": "0",
						"type": "t_uint256"
					},
					{
						"astId": 7,
						"contract": "contracts/day_1/2.Operator.sol:Operator",
						"label": "sub",
						"offset": 0,
						"slot": "1",
						"type": "t_uint256"
					},
					{
						"astId": 10,
						"contract": "contracts/day_1/2.Operator.sol:Operator",
						"label": "mul",
						"offset": 0,
						"slot": "2",
						"type": "t_uint256"
					},
					{
						"astId": 13,
						"contract": "contracts/day_1/2.Operator.sol:Operator",
						"label": "div",
						"offset": 0,
						"slot": "3",
						"type": "t_uint256"
					},
					{
						"astId": 16,
						"contract": "contracts/day_1/2.Operator.sol:Operator",
						"label": "mod",
						"offset": 0,
						"slot": "4",
						"type": "t_uint256"
					}
				],
				"types": {
					"t_uint256": {
						"encoding": "inplace",
						"label": "uint256",
						"numberOfBytes": "32"
					}
				}
			},
			"userdoc": {
				"kind": "user",
				"methods": {},
				"version": 1
			}
		}
	}
}