{
	"contracts/day_1/4.Variables.sol": {
		"Variables": {
			"abi": [
				{
					"inputs": [],
					"name": "data",
					"outputs": [
						{
							"internalType": "uint256",
							"name": "",
							"type": "uint256"
						}
					],
					"stateMutability": "view",
					"type": "function"
				},
				{
					"inputs": [],
					"name": "getAddress",
					"outputs": [
						{
							"internalType": "address",
							"name": "",
							"type": "address"
						}
					],
					"stateMutability": "view",
					"type": "function"
				},
				{
					"inputs": [],
					"name": "getChianId",
					"outputs": [
						{
							"internalType": "uint256",
							"name": "",
							"type": "uint256"
						}
					],
					"stateMutability": "view",
					"type": "function"
				},
				{
					"inputs": [],
					"name": "getResult",
					"outputs": [
						{
							"internalType": "uint256",
							"name": "",
							"type": "uint256"
						}
					],
					"stateMutability": "pure",
					"type": "function"
				}
			],
			"devdoc": {
				"kind": "dev",
				"methods": {},
				"version": 1
			},
			"evm": {
				"assembly": "    /* \"contracts/day_1/4.Variables.sol\":63:760  contract Variables{... */\n  mstore(0x40, 0x80)\n  callvalue\n  dup1\n  iszero\n  tag_1\n  jumpi\n  0x00\n  dup1\n  revert\ntag_1:\n  pop\n  dataSize(sub_0)\n  dup1\n  dataOffset(sub_0)\n  0x00\n  codecopy\n  0x00\n  return\nstop\n\nsub_0: assembly {\n        /* \"contracts/day_1/4.Variables.sol\":63:760  contract Variables{... */\n      mstore(0x40, 0x80)\n      callvalue\n      dup1\n      iszero\n      tag_1\n      jumpi\n      0x00\n      dup1\n      revert\n    tag_1:\n      pop\n      jumpi(tag_2, lt(calldatasize, 0x04))\n      shr(0xe0, calldataload(0x00))\n      dup1\n      0x04985454\n      eq\n      tag_3\n      jumpi\n      dup1\n      0x38cc4831\n      eq\n      tag_4\n      jumpi\n      dup1\n      0x73d4a13a\n      eq\n      tag_5\n      jumpi\n      dup1\n      0xde292789\n      eq\n      tag_6\n      jumpi\n    tag_2:\n      0x00\n      dup1\n      revert\n        /* \"contracts/day_1/4.Variables.sol\":667:756  function getChianId() public view returns(uint256){... */\n    tag_3:\n        /* \"contracts/day_1/4.Variables.sol\":735:748  block.chainid */\n      chainid\n        /* \"contracts/day_1/4.Variables.sol\":667:756  function getChianId() public view returns(uint256){... */\n    tag_7:\n      mload(0x40)\n        /* \"#utility.yul\":160:185   */\n      swap1\n      dup2\n      mstore\n        /* \"#utility.yul\":148:150   */\n      0x20\n        /* \"#utility.yul\":133:151   */\n      add\n        /* \"contracts/day_1/4.Variables.sol\":667:756  function getChianId() public view returns(uint256){... */\n    tag_9:\n      mload(0x40)\n      dup1\n      swap2\n      sub\n      swap1\n      return\n        /* \"contracts/day_1/4.Variables.sol\":537:659  function getAddress() public view returns(address){... */\n    tag_4:\n      mload(0x40)\n        /* \"contracts/day_1/4.Variables.sol\":641:651  msg.sender */\n      caller\n        /* \"#utility.yul\":342:393   */\n      dup2\n      mstore\n        /* \"#utility.yul\":330:332   */\n      0x20\n        /* \"#utility.yul\":315:333   */\n      add\n        /* \"contracts/day_1/4.Variables.sol\":537:659  function getAddress() public view returns(address){... */\n      tag_9\n        /* \"#utility.yul\":196:399   */\n      jump\n        /* \"contracts/day_1/4.Variables.sol\":220:239  uint256 public data */\n    tag_5:\n      tag_7\n      sload(0x00)\n      dup2\n      jump\n        /* \"contracts/day_1/4.Variables.sol\":248:529  function getResult() public pure returns(uint256){... */\n    tag_6:\n      tag_7\n        /* \"contracts/day_1/4.Variables.sol\":289:296  uint256 */\n      0x00\n        /* \"contracts/day_1/4.Variables.sol\":353:354  7 */\n      0x07\n        /* \"contracts/day_1/4.Variables.sol\":403:404  3 */\n      0x03\n        /* \"contracts/day_1/4.Variables.sol\":289:296  uint256 */\n      dup3\n        /* \"contracts/day_1/4.Variables.sol\":458:463  a + b */\n      tag_24\n        /* \"contracts/day_1/4.Variables.sol\":403:404  3 */\n      dup3\n        /* \"contracts/day_1/4.Variables.sol\":353:354  7 */\n      dup5\n        /* \"contracts/day_1/4.Variables.sol\":458:463  a + b */\n      tag_25\n      jump\t// in\n    tag_24:\n        /* \"contracts/day_1/4.Variables.sol\":441:463  uint256 result = a + b */\n      swap5\n        /* \"contracts/day_1/4.Variables.sol\":248:529  function getResult() public pure returns(uint256){... */\n      swap4\n      pop\n      pop\n      pop\n      pop\n      jump\t// out\n        /* \"#utility.yul\":404:626   */\n    tag_25:\n        /* \"#utility.yul\":469:478   */\n      dup1\n      dup3\n      add\n        /* \"#utility.yul\":490:500   */\n      dup1\n      dup3\n      gt\n        /* \"#utility.yul\":487:620   */\n      iszero\n      tag_30\n      jumpi\n        /* \"#utility.yul\":542:552   */\n      0x4e487b71\n        /* \"#utility.yul\":537:540   */\n      0xe0\n        /* \"#utility.yul\":533:553   */\n      shl\n        /* \"#utility.yul\":530:531   */\n      0x00\n        /* \"#utility.yul\":523:554   */\n      mstore\n        /* \"#utility.yul\":577:581   */\n      0x11\n        /* \"#utility.yul\":574:575   */\n      0x04\n        /* \"#utility.yul\":567:582   */\n      mstore\n        /* \"#utility.yul\":605:609   */\n      0x24\n        /* \"#utility.yul\":602:603   */\n      0x00\n        /* \"#utility.yul\":595:610   */\n      revert\n        /* \"#utility.yul\":487:620   */\n    tag_30:\n        /* \"#utility.yul\":404:626   */\n      swap3\n      swap2\n      pop\n      pop\n      jump\t// out\n\n    auxdata: 0xa2646970667358221220dbe6fc8993d92f2ea9cc3ef4977db6e22568efee02caf176ca8777f17affb91a64736f6c634300081a0033\n}\n",
				"bytecode": {
					"linkReferences": {},
					"object": "6080604052348015600e575f80fd5b5060e38061001b5f395ff3fe6080604052348015600e575f80fd5b50600436106044575f3560e01c80630498545414604857806338cc483114605d57806373d4a13a14606a578063de292789146071575b5f80fd5b465b6040519081526020015b60405180910390f35b6040513381526020016054565b604a5f5481565b604a5f6007600382608182846089565b949350505050565b8082018082111560a757634e487b7160e01b5f52601160045260245ffd5b9291505056fea2646970667358221220dbe6fc8993d92f2ea9cc3ef4977db6e22568efee02caf176ca8777f17affb91a64736f6c634300081a0033",
					"opcodes": "PUSH1 0x80 PUSH1 0x40 MSTORE CALLVALUE DUP1 ISZERO PUSH1 0xE JUMPI PUSH0 DUP1 REVERT JUMPDEST POP PUSH1 0xE3 DUP1 PUSH2 0x1B PUSH0 CODECOPY PUSH0 RETURN INVALID PUSH1 0x80 PUSH1 0x40 MSTORE CALLVALUE DUP1 ISZERO PUSH1 0xE JUMPI PUSH0 DUP1 REVERT JUMPDEST POP PUSH1 0x4 CALLDATASIZE LT PUSH1 0x44 JUMPI PUSH0 CALLDATALOAD PUSH1 0xE0 SHR DUP1 PUSH4 0x4985454 EQ PUSH1 0x48 JUMPI DUP1 PUSH4 0x38CC4831 EQ PUSH1 0x5D JUMPI DUP1 PUSH4 0x73D4A13A EQ PUSH1 0x6A JUMPI DUP1 PUSH4 0xDE292789 EQ PUSH1 0x71 JUMPI JUMPDEST PUSH0 DUP1 REVERT JUMPDEST CHAINID JUMPDEST PUSH1 0x40 MLOAD SWAP1 DUP2 MSTORE PUSH1 0x20 ADD JUMPDEST PUSH1 0x40 MLOAD DUP1 SWAP2 SUB SWAP1 RETURN JUMPDEST PUSH1 0x40 MLOAD CALLER DUP2 MSTORE PUSH1 0x20 ADD PUSH1 0x54 JUMP JUMPDEST PUSH1 0x4A PUSH0 SLOAD DUP2 JUMP JUMPDEST PUSH1 0x4A PUSH0 PUSH1 0x7 PUSH1 0x3 DUP3 PUSH1 0x81 DUP3 DUP5 PUSH1 0x89 JUMP JUMPDEST SWAP5 SWAP4 POP POP POP POP JUMP JUMPDEST DUP1 DUP3 ADD DUP1 DUP3 GT ISZERO PUSH1 0xA7 JUMPI PUSH4 0x4E487B71 PUSH1 0xE0 SHL PUSH0 MSTORE PUSH1 0x11 PUSH1 0x4 MSTORE PUSH1 0x24 PUSH0 REVERT JUMPDEST SWAP3 SWAP2 POP POP JUMP INVALID LOG2 PUSH5 0x6970667358 0x22 SLT KECCAK256 0xDB 0xE6 0xFC DUP10 SWAP4 0xD9 0x2F 0x2E 0xA9 0xCC RETURNDATACOPY DELEGATECALL SWAP8 PUSH30 0xB6E22568EFEE02CAF176CA8777F17AFFB91A64736F6C634300081A003300 "
				},
				"gasEstimates": {
					"creation": {
						"codeDepositCost": "45400",
						"executionCost": "97",
						"totalCost": "45497"
					},
					"external": {
						"data()": "2304",
						"getAddress()": "175",
						"getChianId()": "146",
						"getResult()": "321"
					}
				},
				"methodIdentifiers": {
					"data()": "73d4a13a",
					"getAddress()": "38cc4831",
					"getChianId()": "04985454",
					"getResult()": "de292789"
				}
			},
			"storageLayout": {
				"storage": [
					{
						"astId": 3,
						"contract": "contracts/day_1/4.Variables.sol:Variables",
						"label": "data",
						"offset": 0,
						"slot": "0",
						"type": "t_uint256"
					}
				],
				"types": {
					"t_uint256": {
						"encoding": "inplace",
						"label": "uint256",
						"numberOfBytes": "32"
					}
				}
			},
			"userdoc": {
				"kind": "user",
				"methods": {},
				"version": 1
			}
		}
	}
}